:020000040800F2
:10000000485B00205503000857570008C946000800
:1000100055570008A91A000869840008000000006C
:100020000000000000000000000000009502000831
:10003000911D000800000000F1020008017D000889
:100040006F0300086F0300086F0300086F030008C8
:100050006F0300086F0300086F0300086F030008B8
:100060006F0300086F0300086F0300086F030008A8
:100070006F0300086F0300086F0300086F03000898
:100080006F0300086F0300086F0300086F03000888
:100090006F0300086F0300086F0300086F03000878
:1000A0006F0300086F0300086F0300086F03000868
:1000B000C17D0008CD7D00086F0300086F030008B4
:1000C0006F0300086F0300086F0300086F03000848
:1000D0006F0300085D8400086F0300086F030008C9
:1000E0006F0300086F0300086F0300086F03000828
:1000F0006F0300086F0300086F0300086F03000818
:100100006F0300086F0300086F0300086F03000807
:100110006F0300086F0300086F030008D97D000813
:100120006F0300086F030008D51C00086F03000868
:100130006F0300086F0300086F0300086F030008D7
:100140006F0300086F0300086F0300086F030008C7
:100150006F0300086F030008E11C00086F0300082C
:100160006F0300086F0300086F0300086F030008A7
:100170006F0300086F0300086F0300080000000011
:100180006F0300086F03000800F002F800F072F837
:100190000AA090E8000C82448344AAF10107DA45E2
:1001A00001D100F067F8AFF2090EBAE80F0013F0C2
:1001B000010F18BFFB1A43F0010318474CD1000090
:1001C0006CD100000A444FF0000C10F8013B13F012
:1001D000070408BF10F8014B1D1108BF10F8015BA0
:1001E000641E05D010F8016B641E01F8016BF9D193
:1001F00013F0080F1EBF10F8014BAD1C0C1B09D1EA
:100200006D1E58BF01F801CBFAD505E014F8016B5B
:1002100001F8016B6D1EF9D59142D6D370470000ED
:100220000023002400250026103A28BF78C1FBD8FF
:10023000520728BF30C148BF0B60704766290CF0D9
:10024000CC86642900F03281002070471FB50CF085
:10025000BAFE00F02DFE0400002000210BF092FFFA
:10026000401C6060002000210BF076FFE0601FBDA5
:1002700010B510BD00F086FF1146FFF7E7FF09F04B
:10028000B3FD00F0B2FF03B4FFF7F2FF03BC00F0D0
:10029000B3FF00002C4B19680868B0E8F04F80F3FA
:1002A0000988BFF36F8F4FF0000080F3118870470B
:1002B0000000000008480068006880F308884FF0DC
:1002C000000080F3148862B661B6BFF34F8FBFF3AE
:1002D0006F8F00DF00BF00BF08ED00E0DFF80C000B
:1002E000016841F470010160704700BF88ED00E0D3
:1002F000EFF30980BFF36F8F134B1A681EF0100FD6
:1003000008BF20ED108A20E9F04F106009B44FF0CB
:10031000500080F31188BFF34F8FBFF36F8F0BF046
:1003200033F84FF0000080F3118809BC19680868A1
:10033000B0E8F04F1EF0100F08BFB0EC108A80F349
:100340000988BFF36F8F704708040020EFF3058022
:10035000704700000948804709480047FEE7FEE76C
:10036000FEE7FEE7FEE7FEE7FEE7FEE7FEE7FEE765
:1003700004480549054A064B70470000B17D000856
:100380008901000848550020485B0020485700209C
:100390004857002053EA020C00F069802DE9F04B29
:1003A0004FF00006002B1FBFB3FA83F503FA05F4E4
:1003B00024FA05F65E4012BF1643B2FA82F502FA3D
:1003C00005F4C5F120051EBF22FA05FC44EA0C0421
:1003D000203556EA044C4FEA144418BF641C4FF011
:1003E00000084FF00009904271EB030C39D300294B
:1003F00019BFB1FA81F701FA07F6B0FA80F700FAEF
:1004000007F6C7F120071EBF20FA07FC46EA0C06D4
:100410002037B6FBF4FCA7EB0507103F07F01F0BD6
:10042000CBF120060CFA0BFB2CFA06F644BFB346C0
:100430000026202FA4BF5E464FF0000B5BEA060C9F
:1004400008BF4FF0010B19EB0B09ABFB027C48EB2B
:100450000608C01B06FB02CC0BFB03CC71EB0C01A6
:10046000C1E70B46024641464846BDE8F08B13B54E
:100470004FF000004FF00001AFF30080BDE81C40DA
:10048000704700000FB41CB5074B06AA7B446946B1
:100490000090059800F06BFC0020694600F07AFCA3
:1004A0001CBC5DF814FB0000050900002DE9F041BB
:1004B0000646002410687529314616A511D0AFF301
:1004C0000080002803DAC0F1000013A507E03168BE
:1004D0008A0701D511A502E0490704D510A501241A
:1004E00001E0AFF3008000210A2306F1240707E0B2
:1004F000B0FBF3F203FB1200303078541046491C75
:100500000028F5D123462A463046BDE8F04100F0E8
:10051000BCB90000000000002D0000002B0000000E
:10052000200000002DE9F0474FF0000A89460446FC
:10053000C0F820A02046E1688847002876D025280A
:1005400006D0D4E901219047206A401C2062F1E7DF
:10055000E168204600258847C4F81CA0064600270D
:10056000C4F818A02A2E09D0304608F0E1FB38B3B1
:1005700004EB8708303EC8F8186019E059F8041BEE
:10058000204604EB87029161E1688847012F064607
:1005900018D1E069002820DA25F020051DE0D8F800
:1005A000180000EB800006EB40003038C8F8180057
:1005B0002046E1688847064608F0BAFB0028EED1DD
:1005C000012F0AD02E2E08D12046E16888477F1CD3
:1005D0000646022F45F02005C4DBA069002803DA97
:1005E000404245F00105A061E80701D025F0100563
:1005F000B6B1A6F14100192802D8203645F40065AD
:100600004A463146204625604D46FFF717FE58B151
:10061000012806D0ED1D25F0070000F1080989E743
:1006200004E005F1040985E730468AE7206ABDE861
:10063000F08770B5064600F019F9046805463046A3
:100640000A22002100F0ABFB2C6070BD014A00F0D3
:10065000DFBB00008804002010B5431C02E010F846
:10066000011B71B18107FAD14FF0013202C88C1A17
:100670008C4314EAC211F9D0C01A0A0603D0C01E76
:1006800010BDC01A10BD0A0401D0801E10BD0902A1
:10069000FCD0401E10BD032A40F2308010F0030C45
:1006A00000F0158011F8013BBCF1020F624498BFC5
:1006B00011F801CB00F8013B38BF11F8013BA2F162
:1006C000040298BF00F801CB38BF00F8013B11F0DD
:1006D000030300F02580083AC0F0088051F8043B7D
:1006E000083A51F804CBA0E80810F5E7121D5CBFEA
:1006F00051F8043B40F8043BAFF30080D20724BF1D
:1007000011F8013B11F801CB48BF11F8012B24BFB0
:1007100000F8013B00F801CB48BF00F8012B7047FF
:1007200010B5203AC0F00B80B1E81850203AA0E88C
:100730001850B1E81850A0E81850BFF4F5AF5FEAC0
:10074000027C24BFB1E81850A0E8185044BF18C973
:1007500018C0BDE810405FEA827C24BF51F8043B1A
:1007600040F8043B08BF7047D20728BF31F8023B6E
:1007700048BF11F8012B28BF20F8023B48BF00F802
:10078000012B704702F0FF0343EA032242EA0242D0
:1007900000F062BB4FF0000200B513469446964647
:1007A000203922BFA0E80C50A0E80C50B1F1200184
:1007B000BFF4F7AF090728BFA0E80C5048BF0CC032
:1007C0005DF804EB890028BF40F8042B08BF704790
:1007D00048BF20F8022B11F0804F18BF00F8012B02
:1007E000704700004FF0013C50F8042B51F8043BD7
:1007F0009A4221D1A2EB0C03934313EACC1317D1F5
:1008000050F8042B51F8043B9A4215D1A2EB0C038B
:10081000934313EACC130BD150F8042B51F8043B4B
:100820009A4209D1A2EB0C03934313EACC13DBD019
:100830004FF00000704700BFD01A01BAB1FA81F141
:1008400001F0180122FA01F0CB40C1F12001DBB226
:10085000C0B2C01A2CFA01F3D11A914311EAC311A4
:10086000E6D17047704770477047000000487047F6
:10087000E454002010B5FFF7F9FF006810BD10B573
:100880000446FFF7F3FF046010BD2DE9F0470D4665
:1008900099469246044600F124080168880604D56A
:1008A000E06921F01001216000E00120A84202DD92
:1008B000A0EB050700E00027A16907EB050202EBAA
:1008C0000900A1EB0000A0612078C00602D42046F8
:1008D000AFF30080002608E0D4E901211AF80600F1
:1008E0009047206A401C761C20624E45F4DB20783D
:1008F000C0060AD52046AFF3008006E0D4E9012106
:1009000030209047206A401C2062381EA7F1010762
:10091000F4DC07E0D4E9012118F805009047206ACB
:10092000401C2062281EA5F10105F3DC2046AFF330
:1009300000802078000602D50220BDE8F087012063
:10094000FBE770472DE9FF4F0C461E464FF0FF377F
:100950008BB0D2E90001DDF860800A908A46C1F3CD
:100960000A5505B93D46002108464FF00000BAF18E
:10097000000F00F4400005DA00EB80004FF4400166
:1009800001EA50004FEA9059B9F1010F00DDB94674
:100990000A9850EA4A000ED044F61050A5F2FF35EE
:1009A00045432F14B8F1000F1ED07542291E1EDDDD
:1009B000C9F100021CE0B8F1010F4FF0000001D0B6
:1009C000302103E0F24305E02154401CB042FBDB40
:1009D00030460022002121540B99C1F80880C1E95A
:1009E00000200FB0BDE8F08FBD1B6D1CDEE74A464E
:1009F00000DA694206A800F035FB06AB07CB03AB73
:100A000007C350460A9900F0FEFB8DE80700A0F5E9
:100A100000501F3800900398002D09DD42F21F019D
:100A20004A46084403A90390684600F05DFE08E0CA
:100A3000A0F500504A461F3803A90390684600F00D
:100A400067FE8DE807000004000C03D04FF0FF3074
:100A5000410800E01046B8F1000F03D000220092D8
:100A600015461FE0751E06D400F026FA02F130028A
:100A700062556D1EF8D5B3460122084302D000220C
:100A80007F1C04E02078302801D100227F1E002A3C
:100A9000099787D01DE0112D07DA00F00DFA3032EA
:100AA00062556D1C50EA0102F5D108430FD10021B7
:100AB000681E05E0235C625C6354491C2254401E9E
:100AC0008142F7DBAB46A81B401E099001E000986D
:100AD00048B1002004F80B000B98099AC0F8088070
:100AE000C0E9002B7DE711264FF000085AE72DE9F9
:100AF000F04F88460446D21D22F0070191B0D1E99B
:100B00000001CDE90A0107F0B0FC02460B98C00FC6
:100B100001D02D2007E02068810701D52B2002E0BD
:100B2000202101EAC000032A099001D0072A05DB31
:100B300003464146204600F005FA0FE12078800682
:100B400001D5E06900E00620B8F1650F814606D0C6
:100B5000B8F1660F18D0B8F1670F72D132E00020FB
:100B6000B9F1110F009001DB112301E009F101033C
:100B70000AAA01A90CA8FFF7E5FEDDE90C70002622
:100B800009F10105834648E001204B4600904FF0F3
:100B900000470AAA01A90CA8FFF7D4FEDDE90DB0B1
:100BA0000C995D46002618B909F1010001EB00051A
:100BB000B9EB050003D4C0F1FF3609F10105A5EB3F
:100BC00009002BE0B9F1010F01DA4FF00109002013
:100BD000B9F1110F0090484601DD112300E00346F2
:100BE0000AAA01A90CA8FFF7ADFEDDE90C704D467D
:100BF00000268346207800070AD4AB4500DA5D461C
:100C000001A8012D04DD411911F8011C302907D07C
:100C10004F4502DA17F1040F04DA0120824610E092
:100C20006D1EEEE7002F02DCED1B3E4403E0781C56
:100C3000A84200DD0546A7EB060000F1010A4FF0CF
:100C400000472078000703D4AA4501DB4FF0FF3AA4
:100C50000021B7F1004F0DF143088DF8431023D068
:100C600002202B23002F01DA7F422D234FF00A0CA4
:100C7000011EA0F1010000DC4FB197FBFCF10CFB61
:100C800011720F4602F1300208F8012DF0E7A8F1C9
:100C9000010003702188090501D5452100E0652187
:100CA000A0F1010800F8011C09980FA9A1EB0807A1
:100CB00007F1070700B1012000EB050101EBEA7025
:100CC000A1693844A1EB0000A0F10100A0612078E7
:100CD000C00602D42046AFF30080099830B1D4E9B1
:100CE00001219047206A00F1010020622078C006AF
:100CF00020D52046AFF300801CE0002E04DBB34576
:100D000002DD01A8805D00E03020D4E90121904798
:100D1000206A761C401CBAF1010A20620AD100F058
:100D2000C7F8C0680168405CD4E901219047206A97
:100D3000401C2062281EA5F10105DEDC07E0D4E995
:100D4000012118F8010B9047206A401C2062381ED0
:100D5000A7F10107F3DC2046AFF30080022011B0B9
:100D600040E6000001694A1C02610878704700B53E
:100D70008FB0CDE901310021059105497944CDE9D4
:100D8000031011466846FFF7CDFB0FB000BD000011
:100D9000E5FFFFFF0A6802F8010B0A6070472DE9C2
:100DA000F04791460F4680460446002614F8015B42
:100DB0002DB100F075F80068405DC007F6D12B2D0D
:100DC00002D02D2D18D0641E4A463946204600F028
:100DD000F9F827B13968A14201D1C7F800804FF076
:100DE000020471050BD54042002803DDFFF73EFDEC
:100DF0000460A007BDE8F08746F48066E4E70028B9
:100E0000F8DAFFF733FD04606FF00040F2E700000E
:100E10002DE9F04115460E46040002D12C6804B9B4
:100E20000BA4204600F0A0F90444207870B12746B6
:100E30003146384600F088F90444207810B100208B
:100E400004F8010B38462C60BDE8F0810027F9E773
:100E5000000000004FF000020429C0F0128010F0E2
:100E6000030C3FF499ACCCF1040CBCF1020F18BF99
:100E700000F8012BA8BF20F8022BA1EB0C01FFF713
:100E80008BBC5FEAC17C24BF00F8012B00F8012B6A
:100E900048BF00F8012B704700487047E454002019
:100EA00010B500F005F8001D10BD00BFD9B200005C
:100EB000004870470455002030B5B0F10A024FEAEF
:100EC000900E71F100034EEA817EB0EB0E0061EBF3
:100ED00091014FEA101E4EEA017E10EB0E0041EB2D
:100EE00011114FEA102E4EEA016E10EB0E0041EB8D
:100EF00011214FEA104E4EEA014E10EB0E0041EB6D
:100F00001141401841F100014FEAD00040EA417020
:100F10004FEAD10110EB80054FEA810444EA907456
:100F200044EB01046D1944EB0404521BA3414FF040
:100F3000000348BF0A3200D530BD401C41F100011A
:100F400030BD00002DE9F0411F460446032601682C
:100F5000072A01F4006004DB08B116A505E016A518
:100F600003E008B115A500E015A521F010002060F0
:100F7000A069C01EA0610FB1401EA0612046AFF362
:100F800000804FB1D4E9012138469047206A401CC7
:100F90002062C01C206206E0206AFAE7D4E9012141
:100FA00015F8010B9047761EF8D22046AFF300806B
:100FB000BDE8F0814E414E006E616E00494E460024
:100FC000696E66002DE9F05F824615468B46002764
:100FD0000AF10104B9460078302801D09DB113E030
:100FE00014F8010B0127782803D0582801D045B107
:100FF0000AE00DB1102D07D1002714F8010B1025C0
:1010000002E0082500E00A250026B0460EE005FBB8
:10101000080005FB06F101271FFA80F801EB1046D6
:10102000B6F5803F00D3B94614F8010B294600F00D
:10103000CEF80028EBDABBF1000F05D00FB1641E2B
:1010400000E05446CBF80040B9F1000F06D0FFF79E
:101050000DFC02210160C81EBDE8F09F48EA064071
:10106000FAE700002DE9F047814616468AB0354878
:101070007844D0E9002380680092CDE901303148FE
:1010800078440C38D0E90223006903924FF037020C
:10109000CDE9043041F69B30014491FBF2F0A0F120
:1010A000800502FB10141B3C02D56442012000E0C5
:1010B0000020DFF890A080460027FA44AAF1C60A73
:1010C0000DE0E00709D03246684607EB47010AEB1E
:1010D000810100F01DFB8DE8070064107F1C002CCF
:1010E000EFD1184F7F44B43F17E0E80713D007EB68
:1010F00004100DF1180A90E80E00AAE80E00C0686E
:10110000F04201D198190890324606A903A800F0D0
:10111000FFFA03AB07C36D10641C002DE5D1324606
:101120006946B8F1000F03A802D000F0DDFA01E033
:1011300000F0EEFAC9E90001C9F808200AB0BDE8DC
:10114000F0870000E8C1000030B503461D781DB1EE
:101150000A4603E0AC4201D1181A30BD12F8014B27
:10116000002CF7D15B1CF1E730B503461D783DB18B
:101170000A4612F8014B1CB1AC42FAD15B1CF5E7F0
:10118000181A30BD7546FFF787FEAE460500694662
:10119000534620F00700854618B020B5FFF7E8F861
:1011A000BDE820404FF000064FF000074FF0000868
:1011B0004FF0000B21F00701AC46ACE8C009ACE8E9
:1011C000C009ACE8C009ACE8C0098D4670473A28B0
:1011D00000D2303820F02002412A01D3A2F137009A
:1011E000884201D34FF0FF3070470446AFF30080D0
:1011F0002046FFF748F8000001491820ABBEFEE783
:101200002600020070475FEA400C08BF91F0000F13
:101210004FEA8C234FEAC12243EA51514FEA1C5056
:1012200018BF00F5F0404FEA300018BF41F0004110
:101230005FEA6C5C00F02980BCF1FF3F08BF40F022
:1012400080407047130C06BF12044FF0100C4FF093
:10125000000C130E04BF12020CF1080C130F04BF94
:1012600012010CF1040C930F04BF92000CF1020C5C
:10127000D30F04BF52000CF1010C11464FF00002D5
:10128000A0F11F00A0EB0C00704711F0004F08BF49
:10129000704731F000413FF4D5AF0B0C06BF090495
:1012A0004FF0100C4FF0000C0B0E04BF09020CF1B4
:1012B000080C0B0F04BF09010CF1040C8B0F04BFC9
:1012C00089000CF1020CCB0F04BF49000CF1010C9A
:1012D000CCF12003A0EB0C0022FA03F302FA0CF28B
:1012E00041EA030100F10100704720F07F4C80EAE1
:1012F000030023F07F47ACEB070303F57C5300F0BA
:10130000004003F1FF032DE980494FEA154B09B472
:101310004FEA144325EA0B4E24EA03480FF2042651
:1013200006EB132749083E785FEA320203FB0667A3
:10133000C7F5000707FB06F64FEA54374FEAD646D3
:1013400006F1020607FB066CCCF1005C4FEA1C4775
:101350002CEA074C07FB06F40CFB06F504EB1546DC
:101360004FEA961634BF00204FF000404FEAD137C5
:1013700006FB07FC4FEA1C4C0CFB0BF7D21B03FBD4
:101380000CF761EB07010CFB0EF7B0EB074072EBBB
:1013900017420CFB08F734BFA2EB0742B2EB07423F
:1013A00061EB17414FEA0C444FEA910706FB07FC3B
:1013B0004FEA1C4C0CFB0BF7B0EBC74072EB5732FB
:1013C00003FB0CF734BFA2EBC742B2EBC74261EBA1
:1013D00057310CFB0EF7B0EBC70072EB57720CFBEA
:1013E00008F734BFA2EBC702B2EBC70261EB57713B
:1013F000039F4FEA816141EA921104EBCC044FEA6A
:10140000D1374FEA826206FB07FC42EA90124FEAAC
:1014100080604FEA1C4C0CFB0BF7D21B03FB0CF754
:1014200061EB07010CFB0EF7B0EB074072EB1742C4
:101430000CFB08F734BFA2EB0742B2EB074261EBAB
:1014400017414FEA8C554FEA910704EB9C2406FBA9
:1014500007FC4FEA1C4C0CFB0BF7B0EBC74072EBE0
:10146000573203FB0CF734BFA2EBC742B2EBC742C3
:1014700061EB57310CFB0EF7B0EBC70072EB577204
:101480000CFB08F734BFA2EBC702B2EBC70261EB5B
:10149000577115EB4C254FEA816141EA92114FEAF1
:1014A00082624FEAD13742EA901206FB07FC44F110
:1014B00000044FEA80604FEA1C4C0CFB0BF7D21B78
:1014C00003FB0CF761EB07010CFB0EF7B0EB0740D9
:1014D00072EB17420CFB08F734BFA2EB0742B2EBEA
:1014E000074261EB174115EB1C154FEA813141EAC8
:1014F00092414FEA823242EA90424FEA80304FEA0C
:101500000C7644F1000448EA03434EEA0B484FF0DE
:10151000000EB2EB080C71EB030724BF624639469C
:101520004EEB0E0E4FF0000B0018524149414BEBB1
:101530000B0BB2EB080C71EB03077BF1000B24BF24
:10154000624639464EEB0E0E4FF0000B001852412A
:1015500049414BEB0B0BB2EB080C71EB03077BF132
:10156000000B24BF624639464EEB0E0E51EA0207CD
:1015700018BF46F0010616EB0E7655F1000254F145
:10158000000103D5BDE88901BDE80088BDE88901F7
:10159000BDE80048B619524141EB0101A3F1010336
:1015A000704780807F7E7D7C7B7A797877767675D0
:1015B0007473727171706F6E6E6D6C6C6B6A6A6948
:1015C0006868676666656464636362616160605FE2
:1015D0005F5E5E5D5D5C5C5B5B5A5A59595858575B
:1015E00057565655555554545353525252515150C3
:1015F00050504F4F4F4E4E4D4D4D4C4C4C4B4B4B16
:101600004A4A4A494949484848474747474646465B
:101610004545454444444443434343424242424196
:101620004141002B26D4770021D01CB54FEA370763
:1016300003B44FF010004FF010014FF000000FBC4A
:10164000BDE810400BF1010BBBF1010F08BF5FEAD1
:10165000170722BF12F1010211F101014FF0004101
:1016600043F1000300F0004043EA00007047F9D363
:101670005708DAE746EA064613F1400F4FEA1646E6
:101680001FDD13F1200FDFBF16430A460021203370
:101690005B42C8D0C3F1200746EA064602FA07F7C4
:1016A0004FEA164646EA0706C3F1200722FA03F27C
:1016B00001FA07F721FA03F14FF0000342EA0702AB
:1016C000B1E746EA020646EA06464FEA164646EA09
:1016D0000106BCBF46EA0646360C4FF000034FF049
:1016E00000024FF000019EE72DE9C048934630B458
:1016F00091E8380007C831EA400C48BF34EA430C8F
:1017000003D5FFF7F2FDFFF78CFFF0BCBDE80088C2
:101710002DE9C048934630B491E8380007C810F06E
:10172000804F08BF13F0804F03D100F005F8FFF79A
:1017300078FFF0BCBDE8008820F07F4780EA030016
:1017400023F07F4C07EB0C03A3F57C5300F0004023
:10175000A3F1FE0392F0000F00F0B38095F0000FAC
:1017600000F077802DE901494FEA11404FEA144615
:1017700021EA004800FB06FC24EA064708FB06F6BF
:1017800007FB08F800FB07F718EB06484CEB164C74
:101790004FEA124B18EB07484FEA15464CEB17403F
:1017A00022EA0B4E0BFB06FC25EA06470EFB06F66B
:1017B00007FB0EFE0BFB07F71EEB064E4CEB164C21
:1017C0004FF000061EEB074E4CEB174B18EB0B08C7
:1017D00040F1000018EB0E0B58EB000840F1000040
:1017E0008F1A4FF000013CBFC943661B14BFB5EB15
:1017F000040C00213CBFC943F61B4FEA17444EEAD4
:101800008E0E27EA04454FEA1C4704FB07622CEAC8
:10181000074C05FB07F70CFB05F604FB0CFC16EB6D
:10182000074642EB174216EB0C4642EB1C421BEB01
:10183000060658EB0202414146EA9E0601D5BDE884
:101840000189B619524141EB0101A3F10103BDE841
:1018500001894FEA14454FEA114724EA054621EA77
:10186000074C05FB07F406FB07F70CFB06F105FB2D
:101870000CFC11EB074144EB17444FEA124711EB04
:101880000C4144EB1C4422EA074C05FB07F206FB23
:1018900007F70CFB06F605FB0CFC16EB074642EBC4
:1018A000174216EB0C4642EB1C456A1854F1000136
:1018B00048BF7047B619524141EB0101A3F1010342
:1018C000704795F0000F37D04FEA11424FEA1447A6
:1018D00021EA024624EA074C02FB07F106FB07F760
:1018E0000CFB06F402FB0CFC14EB074441EB174124
:1018F0004FEA154714EB0C4441EB1C4125EA074C19
:1019000002FB07F506FB07F70CFB06F602FB0CFCD7
:1019100016EB074645EB174516EB0C4645EB1C420C
:10192000121951F1000148BF7047B619524141EBFD
:101930000101A3F1010370474FEA14454FEA114733
:1019400024EA054621EA074C05FB07F106FB07F7E9
:101950000CFB06F24FF0000605FB0CFC12EB0742F5
:1019600041EB174112EB0C4251EB1C4148BF704751
:10197000921841EB0101A3F101037047464910B5EC
:101980004A6822F440324A604A6843681A434A600F
:1019900001684A6822F480724A6001684A680369F3
:1019A00042EA03224A6001684A6822F040724A60B3
:1019B00001684A6883681A434A6001688A6822F4A9
:1019C00000628A6001688A68C3681A438A60334A81
:1019D000816A914201688A6822F070628A600168B7
:1019E0008A680CD0836A1A438A6001688A6822F088
:1019F00040528A6001688A68C36A1A4301E022F093
:101A000040528A6001688A6822F002028A60016896
:101A10008A68037E42EA43028A6090F82010002917
:101A200001684A680FD042F400624A6001684A685F
:101A300022F460424A6001684A68194C436A04EB28
:101A400043331A4301E022F400624A600168CA6A23
:101A500022F47002CA620168CA6A838B114C04EBDB
:101A600003531A43CA6201688A6822F400728A60CA
:101A700001688A6890F8303042EA43228A6001683F
:101A80008A6822F480628A6001688A68406942EA52
:101A90008020886010BD0000002301400100000F7D
:101AA00000E0FFFF0000F0FFFEE700002DE9F0433B
:101AB000044684482DED048B87B0D0ED008A90ED6C
:101AC000018AA07998B14FF47A7500BF00F0F2FE58
:101AD0000146A068091AA9420CD258B194ED040A33
:101AE000D4ED030A07B0BDEC048BBDE8F0834FF4DE
:101AF000FA65EBE700F0DEFE401CA060142102A8AE
:101B0000FEF748FEA1880122206800F0CEFEA088E2
:101B1000029011200390E07904900220059002A920
:101B2000206800F0C5FDA1880022206800F0BDFEFD
:101B3000122000F0F9FCA1880122206800F0B5FE17
:101B4000142102A8FEF726FEA0880027CDE902078F
:101B5000E079049002A9206800F0AAFD72B6002581
:101B60009FED599A42F2107609E06D1CADB2B54274
:101B700005D962B684ED049A84ED039A18E0A18831
:101B8000206800F08DFE0128EFD0002503E06D1CD9
:101B9000ADB2B542EDD8A188206800F081FE0128E1
:101BA000F5D1002509E06D1CADB2B54205D962B68C
:101BB000B0EE680AF0EE480A94E7A188206800F0C9
:101BC0006FFE0128EFD000974FF000084FF6FF7925
:101BD000019707270026354601E06D1CADB2A188AC
:101BE000206800F05DFE012804D04D45F5D101E0EC
:101BF000761CB6B2A188206800F052FE012801D1FF
:101C00004E45F5D1AE4206D91DF808200121B94054
:101C10000A430DF808207F1EFFB2FF2FDAD108F12A
:101C2000010000F0FF08B8F1050FD2D362B69DF8AD
:101C300000109DF801009DF803300A189DF802007D
:101C400003441A449DF80430D2B29A4231D1A279A9
:101C5000012A01D02AB32CE0BDF80010DFED1B0AE9
:101C600049BA00EE101A0106B8EE400A60EE208A6A
:101C700007D4BDF8020040BA00EE100AB8EE400AE0
:101C80000CE020F080008DF80200BDF80200DFEDCE
:101C9000100A40BA00EE100AB8EE400A20EE208A80
:101CA00007E000EE101AF8EE408A00EE100AB8EED7
:101CB000408AC4ED048AB0EE680AF0EE480AC4ED2A
:101CC000030A0FE7E0CF0008000000C3CDCCCC3DF5
:101CD000CDCCCCBD014800F0B1BA0000080B00200B
:101CE000014800F0ABBA0000680B0020016818231F
:101CF000CAB2103AB2FBF3F2054B6FF30901032AA3
:101D00009B5CC36500D9091D8165084670470000CA
:101D100020D1000810B5014600208B698A6A4FF077
:101D2000C07453B1B3F5005F15D072B1012A0CD065
:101D3000022A0AD0032A09D104E01AB1012A06D0E6
:101D4000022A03D1C96AC90100D5012010BDC96AA0
:101D5000A142FAD010BD002AF7D0012AF2D0022AFF
:101D6000F3D0032AF3D010BD30B50468256825F4FC
:101D700080252560046863608368402B036803D076
:101D800099600068C26030BD9A600068C16030BD73
:101D9000704772B6FEE7000078B50024009490F812
:101DA0003C20012A19D0012280F83C200A68072330
:101DB0000568092A13D9EE680A3A02EB42029340F9
:101DC0009E43EE600B788A680A3B03EB43039A401C
:101DD0000368DD682A43DA6010E0022078BD2E69CE
:101DE00002EB420293409E432E610B788A6803EB1C
:101DF00043039A4003681D692A431A614A681F23F6
:101E0000072A13D205686E6B521E02EB82029340C2
:101E10009E436E630B790A885B1E92B203EB8303C9
:101E20009A4003685D6B2A435A6327E005680D2AD0
:101E300012D22E6BD21F02EB820293409E432E637E
:101E40000B790A88DB1F92B203EB83039A40036885
:101E50001D6B2A431A6311E0EE6A0D3A02EB82020F
:101E600093409E43EE620B790A880D3B92B203EBDE
:101E700083039A400368DD6A2A43DA62164B0568D9
:101E8000144A9D4206D10D68122D03D1556845F4C0
:101E90008005556005689D4218D10B68102B01D054
:101EA000112B13D1536843F40003536009681029C0
:101EB0000CD10A490A4A0968B1FBF2F101EB810130
:101EC000490000E0491E00910029FBD180F83C4008
:101ED000002078BD002301400020014004040020C0
:101EE00040420F000068C06C704770B504004FF0AE
:101EF000000503D0206C002610B107E0012070BD62
:101F0000204600F01DF8666484F83C60206CC00632
:101F100010D4206C20F4885040F002002064204649
:101F2000FFF72CFD6664206C20F0020040F00100F9
:101F3000206400E0012584F83C60284670BD000064
:101F400010B586B0044614216846FEF723FC1149FB
:101F5000206888421CD110480021026842F4807237
:101F60000260006800F4807005900B481438026825
:101F700042F001020260006800F0010005900220BA
:101F800000900320CDE901016946044800F090FB70
:101F900006B010BD0020014044380240000002405D
:101FA0002DE9F041044600680D4681684FF00007B6
:101FB00049050BD58068C00508D5206C40F020008D
:101FC000206484F83C700120BDE8F08100F072FCD0
:101FD000064613E0681C11D025B100F06BFC801B95
:101FE000A8420BD920680068800707D4206C40F015
:101FF0000400206484F83C700320E5E72068006852
:102000008007E7D521686FF012000860206C40F46B
:10201000007020642068816811F0405F13D1217E38
:1020200089B9C16A11F4700F02D0806840050AD4E2
:10203000206C20F480702064206CC00403D4206CD9
:1020400040F0010020640020BEE7000018B5002128
:10205000009190F83C20012A07D0012280F83C2012
:1020600002689368DB0702D013E0022018BD936872
:1020700043F0010393602F4A2F4B1268B2FBF3F237
:1020800002EB420202E000BFA2F101020092002A2C
:10209000FAD102689368DB0742D0036C40F2016416
:1020A000A34343F48073036453685B0505D5036C55
:1020B00023F4005343F480530364036CDB0404D51E
:1020C000436C23F00603436400E0416480F83C1055
:1020D0001A496FF02203136049680068CA0618495C
:1020E00006D0884224D1816811F0405F13D01FE0F0
:1020F0008842F8D0134A904203D1D1F80423D20683
:10210000F1D0114A904213D1D1F8041301F01F010C
:102110001029E8D30CE0816841F08041816007E03C
:10212000016C41F010010164416C41F00101416416
:10213000002018BD0404002040420F00002301408D
:1021400000200140002101400022014090F83C1095
:1021500001290CD0012180F83C1001688A6822F026
:1021600001028A6001688968C90702D007E002207D
:102170007047016C21F4885141F001010164002194
:1021800080F83C10084670472DE9F0410446876D01
:1021900000F090FB064694F835000025022806D092
:1021A0008020606584F834500120BDE8F08120680B
:1021B000016821F0160101602068416921F0800169
:1021C0004161206C08B9A06C20B12068016821F041
:1021D000080101602068016821F0010101600BE045
:1021E00000F068FB801B052806D9202034342062CB
:1021F000032060702570D8E720680068C007EFD121
:1022000034343F2094F828108840B8600120607072
:1022100025700020C9E790F83510022903D08021ED
:10222000416501207047052180F83510006801687C
:1022300021F0010101600020704700002DE9F84302
:1022400004464FF00009CDF8009065484FF4165150
:10225000A56D0068B0FBF1F72E6894F85C100820BB
:1022600000FA01F1314210D021680A6852070CD5FA
:102270000A6822F004020A6094F85C1000FA01F087
:10228000A860606D40F00100606594F85C104FF04C
:10229000010808FA01F0304208D0216849690906AE
:1022A00004D5A860606D40F00200606594F85C1091
:1022B000042000FA01F0304208D02168096889073B
:1022C00004D5A860606D40F00400606594F85C106F
:1022D000102000FA01F0304218D02168096809077F
:1022E00014D5A86020680168490304D5006800037C
:1022F00008D5A16C07E00168C90503D4016821F085
:1023000008010160216C09B12046884794F85C10EF
:10231000202000FA01F0304231D021680968C90656
:102320002DD5A86094F8350005282068016806D0EE
:10233000490347D5006800031DD4616C1CE021F0FF
:10234000160101602068416921F080014161206C23
:1023500008B9A06C20B12068016821F00801016073
:1023600094F85C103F208840A86084F8358084F899
:102370003490216D1FE0E16B09B120468847606D04
:1023800000282BD0606DC00714D0052084F83500DC
:102390002068016821F0010101600098401C009054
:1023A000B84203D820680068C007F6D184F83580A9
:1023B00084F83490E16C002910D001B02046BDE8CB
:1023C000F04308470168C905D5D4016821F0100120
:1023D000016084F8358084F83490CCE7BDE8F88358
:1023E000040400202DE9F041044600F063FA06469B
:1023F0005CB1022084F83500002584F83450206850
:10240000016821F0010101600DE00120BDE8F081CB
:1024100000F050FA801B052805D9202060650320B4
:1024200084F83500F2E720680068C007F0D1226820
:10243000116820480140D4E901031843D4E9033668
:102440003343184363691843A3691843E369184386
:10245000236A18430843616A042903D1D4E90B13A2
:1024600019430843106020684069666A20F007013C
:1024700030460E43012704280CD1A06A0643E06AC7
:1024800040B12046FFF746FC20B14020606584F84B
:102490003570BAE7206846612046FFF727FC94F8BC
:1024A0005C203F2191408160656584F83570002093
:1024B000ACE700003F8010F02DE9F0410446866D46
:1024C00090F83400002501280DD0012084F8340054
:1024D00094F835700020012F07D084F834000225CD
:1024E0002846BDE8F0810220FBE7022784F835701A
:1024F00060652046FFF738FC94F85C103F20884068
:10250000B0602068016841F016010160206C20B1C4
:102510002068016841F0080101602068016841F00D
:1025200001010160DCE7000070B5044600F0C2F96B
:102530000546601C02D004480078044400F0BAF953
:10254000401BA042FAD370BDF80300202DE9F04FE4
:102550000022DFF834B101264FF00F0906FA02F429
:1025600001EA0403A3427DD122F003075F44D7F8B8
:10257000008095074FEA157C09FA0CFA0AEA08056B
:10258000DFF80881404502D14FF0000832E0DFF863
:102590000081404502D14FF001082BE0DFF8F480C4
:1025A000404502D14FF0020824E0DFF8EC804045BE
:1025B00002D14FF003081DE0DFF8E080404502D172
:1025C0004FF0040816E0DFF8D880404502D14FF004
:1025D00005080FE0DFF8CC80404502D14FF0060837
:1025E00008E0DFF8C480404502D14FF0070801E061
:1025F0004FF0080808FA0CF8A84520D12B4DD5F863
:1026000000C02CEA030CC5F800C02D1DD5F800C091
:102610002CEA030CC5F800C0244D0C35D5F800C0D9
:102620002CEA030CC5F800C02D1FD5F800C02CEA19
:10263000030CC5F800C03D6825EA0A053D60056841
:1026400057000323BB409D430560D50800EB85057B
:10265000D5F820C057074FEAD76809FA08F72CEADF
:10266000070C00E00AE0C5F820C0C5689D43C560BE
:102670004568A543456084689C438460521C102AC9
:10268000FFF46CAFBDE8F08F083801400000024055
:102690000004024000080240000C0240001002400A
:1026A0000014024000180240001C0240003C01409F
:1026B0002DE9F84FDFF8BCA10022012503264FF0D9
:1026C0000F090AF1040BAAF1040E00BF0B6805FA0A
:1026D00002F42340A34270D10F7907F00307012FC2
:1026E00001D0022F16D187684FEA420806FA08FC8B
:1026F00027EA0C07D1F80CC00CFA08FC4CEA070CCE
:10270000C0F808C04768A7430C79C4F3001494408C
:102710003C4344600C79E443A4070AD0C4684FEA00
:10272000420C06FA0CF7BC438F6807FA0CF72743F4
:10273000C7600C7904F00304022C10D1D40800EB1C
:102740008407B8463F6A54074FEAD46C09FA0CF480
:10275000A7430C6904FA0CF43C43C8F82040046811
:10276000570006FA07FC24EA0C0491F804C00CF0A8
:10277000030C0CFA07FC4CEA040CC0F800C04C68CF
:1027800014F4403F6FD03C4C276847F480472760E3
:10279000246822F0030704F480440094374C3C443E
:1027A000A046276894074FEA147C09FA0CF4A74363
:1027B000334CA04202D1002424E054E0314CA0422A
:1027C00001D101241EE0304CA04201D1022419E0C5
:1027D0002E4CA04201D1032414E02D4CA04201D183
:1027E00004240FE02B4CA04201D105240AE02A4C1E
:1027F000A04201D1062405E0284CA04201D10724C3
:1028000000E0082404FA0CF43C43C8F80040DAF86D
:1028100000405746D1F804C09C435FEACC2C00D559
:102820001C433C60DBF800405F46D1F804C09C4389
:102830005FEA8C2C00D51C433C60DEF800407746F4
:10284000D1F804C09C435FEA8C3C00D51C433C603B
:10285000084F083F3C68D1F804C09C435FEACC3C79
:1028600000D51C433C60521C102AFFF42FAFBDE87A
:10287000F88F0000083C014044380240083801400D
:10288000000002400004024000080240000C024028
:10289000001002400014024000180240001C0240D8
:1028A0000069084000D0012070470AB1816170477B
:1028B0000904FBE70148806870470000F803002026
:1028C00010B5040012D0242084F83D00206801686F
:1028D00021F001010160204600F002FB00203034AD
:1028E000206160732060A073207310BD012010BDB3
:1028F00070B5040025D094F83D00002520B984F877
:102900003C50204600F030FB242084F83D00206835
:10291000016821F0010101602068016841F4004173
:1029200001602068016821F40041016000F02AFD87
:102930004A4A6168914201D8494900E049498842C0
:1029400001D2012070BD48492368B0FBF1F15E68F7
:1029500026F03F060E435E606368934206D94FF44B
:10296000967359434FF47A73B1FBF3F12368491C12
:102970001E6A26F03F0631431962616891420AD807
:102980004900401EB0FBF1F0401CC0F30B000428CE
:102990001ED204201CE0A368F3B301EBC10202EBDA
:1029A0000116421EB2FBF6F2521C42F4804212059E
:1029B00049D093B301EBC10202EB0111401EB0FB01
:1029C000F1F0401CC0F30B0040F4804040F40040A4
:1029D0002168CA694CF6FF739A431043C861D4E971
:1029E000071001432068026822F0C0021143016011
:1029F000D4E9030101432068826848F2FF339A4317
:102A000011438160D4E9050108432168CA6822F0B6
:102A1000FF021043C86001E00EE016E02068016884
:102A200041F0010101602564202084F83D00256308
:102A300084F83E50002070BD01EB4106421EB2FBFF
:102A4000F6F2521CB3E70120C2E701EB4101401E40
:102A5000B0FBF1F0401CC0F30B00B7E7A08601000B
:102A600080841E0000093D0040420F002DE9F84F10
:102A70001F4690468A460446DDF82890FFF71AFF65
:102A8000054694F83D0020287ED1192301224249B1
:102A90002046009502F002F800287AD194F83C0014
:102AA000012876D0012084F83C0020680168C9071D
:102AB00003D1016841F0010101602068016821F43F
:102AC00000610160212084F83D00102084F83E0060
:102AD00000262664C4F824806785608D20852F48F1
:102AE000E0622B464A465146204601F08BFE90B9E3
:102AF00020684169806900903AE02A4649462046AC
:102B000002F0A9F850B1206C042804D120680168B3
:102B100041F4007101600120BDE8F88F606A21680E
:102B200000780861606A00F101006062618DA1F1C6
:102B300001016185218DA1F1010189B22185226800
:102B400053696FEA03035B070BD451B1007810613E
:102B5000606A401C6062608D401E6085208D401E52
:102B600020852A464946204601F06CFF0028CAD13C
:102B7000208D0028C1D154F81F0B016841F4007169
:102B800001602020A07700E003E0E6776677002070
:102B9000C2E70220C0E70000020010000000FFFFB3
:102BA0002DE9FF4F83B09A46DDE91187934604462D
:102BB000DDF84090FFF77EFE054694F83D002028A2
:102BC00070D11923012275492046009501F066FF56
:102BD0000028F5D194F83C00012863D0012084F846
:102BE0003C0020680168C90703D1016841F0010178
:102BF00001602068016821F400610160222084F8EE
:102C00003D00402084F83E0000262664C4F824904D
:102C1000A4F82A80608D20856148E062CDE90075C6
:102C200053465A462046049901F03AFE002879D1CD
:102C3000208DD0B1012821D00228206824D04169FC
:102C400080690090208D032866D801282BD0554933
:102C500002283B464FF00002009557D08846204698
:102C600001F01CFF00285DD13AE0206841698169CC
:102C70000091016841F40071016081E02068016801
:102C800021F480610160F0E7016821F48061016056
:102C90002068016841F40061016020684169806931
:102CA00000906DE077E02A463946204601F09CFF0F
:102CB00088BB58E02068016841F400710160206819
:102CC0000069616A0870606A401C6062218D491E5B
:102CD0002185618D491E618521680969017046E081
:102CE0002068016821F48061016020680069616AE0
:102CF0000870606A401C6062208D401E2085608DD7
:102D0000401E60853B46002241460095204601F06A
:102D1000C5FE00B9CEE705E02A463946204601F057
:102D200063FF18B1012007B0BDE8F08F206800698B
:102D3000616A0870606A00F101006062208DA0F194
:102D4000010081B22185608DA0F1010060852068BD
:102D500042696FEA0202520712D4032903D10168C3
:102D600021F48061016020680069616A0870606A0E
:102D7000401C6062208D401E2085608D401E608555
:102D8000208D00287FF45EAF20203C346070A67058
:102D900026700020C7E70220C5E7000002001000EF
:102DA0000000FFFF040001002DE9FF4F83B09A46A9
:102DB000DDE9119793460446DDF84080FFF77AFD80
:102DC000054694F83D0020287ED11923012242496E
:102DD0002046009501F062FE00287AD194F83C006C
:102DE000012876D0012084F83C0020680168C907DA
:102DF00003D1016841F0010101602068016821F4FC
:102E000000610160212084F83D00402084F83E00EC
:102E100000262664C4F82480A4F82A90608D2085BA
:102E20002E48E062CDE9007553465A462046049983
:102E300001F0B4FD70B934E02A463946204601F06D
:102E40000AFF58B1206C042804D12068016841F4BD
:102E500000710160012007B0BDE8F08F606A216851
:102E600000780861606A00F101006062218DA1F1C3
:102E7000010189B22185628DA2F101026285226879
:102E800053696FEA03035B070BD469B100781061E3
:102E9000606A401C6062208D401E2085608D401E4F
:102EA0006085208D0028C7D12A463946204601F08A
:102EB000C9FD0028C6D154F81F0B016841F4007108
:102EC00001602020A07700E003E0E677667700202D
:102ED000C1E70220BFE70000020010000000FFFF72
:102EE00010B5194A0168194891420AD1016821F4C4
:102EF00000110160164C40212046FFF727FB80217E
:102F00000CE0144A91420BD1016821F48001016068
:102F1000114C01212046FFF719FB022120460DE04C
:102F20000E4A91420ED1016821F400010160511551
:102F30000B48FFF70BFB0B484FF48071BDE81040C6
:102F4000FFF704BB10BD00000054004040380240B1
:102F5000000402400058004000140240005C0040A1
:102F600000080240000002402DE9F04186B004460E
:102F700014216846FDF70EFC2268394C374B0021BE
:102F8000374812260325042710349A4218D10268C4
:102F900042F002020260006802AA00F002000590FE
:102FA000A2C2C020CDE9000669462E48FFF780FB8B
:102FB000206840F400102060206800F4001019E040
:102FC000294B9A421AD1026842F02002026000683E
:102FD00002AA00F020000590CDE90056A2C2694681
:102FE0002248FFF765FB206840F4800020602068DD
:102FF00000F48000059006B0BDE8F0811C4B9A42B9
:10300000F9D18846016841F004010160016801F0CE
:1030100004010591016841F0010101600068694601
:1030200000F00100059050158DE84101CDE90357EE
:103030001048FFF73DFB4FF480708DE84101CDE96A
:10304000035769460C48FFF733FB206840F4000043
:103050002060206800F40000CCE70000005400402D
:103060003038024000040240005800400014024082
:10307000005C0040000802400000024002488168F5
:103080000278114481607047F80300200B4810B5A6
:10309000016841F400710160016841F480610160E0
:1030A000016841F480710160032000F09FF80F2057
:1030B00000F006F800F050F8002010BD003C02407F
:1030C00030B505461F4887B00024016841F0200153
:1030D0000160006806A900F02000009001A800F03F
:1030E00031F90498A8B100F04DF940001649174A8B
:1030F000B0FBF1F11648491E026040F2E732C0E928
:103100000324C0E90114846100F0B8FB040003D07B
:1031100015E000F037F9E9E70D4800F02FFC040056
:103120000DD1372000F034F8102D07D200222946A7
:10313000372000F03BF80748056000E0012407B0A5
:10314000204630BD4038024040420F00001400408D
:10315000C80B0020FC0300200C4882B0016841F439
:1031600080410160006800F4804000900748001F23
:10317000016841F0805101600068002200F0805039
:1031800000900F21901E02B000F010B844380240A9
:1031900000280ADB00F01F020121914040094FF096
:1031A000E02202EB8000C0F800117047F0B40E4B33
:1031B0001B680C46C3F30223C3F10705042D00D995
:1031C0000425191D072901D2002300E0DB1E01267A
:1031D00006FA05F1491E214099409E40761E164090
:1031E0003143F0BC05F05AB90CED00E0064900F09F
:1031F000070208684FF6FF03184040EA0220034A1E
:1032000010430860704700000CED00E00000FA0574
:103210002DE9F0470E46050065D0DFF81481D8F897
:103220000000F7B200F00700B04207D288F8007043
:10323000D8F8000000F00700B04254D128683D4C97
:10324000810712D5400703D5206840F4E050206084
:103250002878000703D5206840F46040206020688B
:10326000A96820F0F000084320602878C0072DD01E
:10327000304968680839012812D0022813D0032881
:1032800011D00968890700292DDA216821F003018E
:1032900001432160FFF70EFB814641F2883A0EE0C0
:1032A00009688903EFE709688901ECE7FFF702FB8A
:1032B000A0EB0901514502D90320BDE8F087206841
:1032C000696800F00C00B0EB810FEFD1D8F8001066
:1032D000404601F00701B14207D90770006800F0CD
:1032E0000700B04201D00120E7E72878400705D564
:1032F0002068E96820F4E05008432060287800073F
:1033000006D52068296920F4604040EAC1002060A9
:1033100000F058F82168084AC1F30311515CC84015
:103320000649086006480068FFF7CAFE0020C4E7A7
:10333000003C02400838024028D100080404002064
:10334000FC0300200F2202600C4A136803F0030301
:103350004360136803F0F0038360136803F4E053E1
:10336000C36012684FF4E05303EAD20202610448DA
:10337000006800F00700086070470000083802404D
:10338000003C02400448054900680968044AC1F34A
:103390008221515CC8407047040400200838024074
:1033A00038D100080448054900680968044AC1F397
:1033B0004231515CC8407047040400200838024084
:1033C00038D10008154810B5006810F00C021448F8
:1033D00013D01449042A0FD0082A0ED10F4C241FF1
:1033E0002268236802F03F025B0207D52068C0F321
:1033F0008810A0FB010106E0084610BD2168C1F35A
:103400008811A1FB00010023FCF7C4FF2168C1F370
:103410000141491C4900B0FBF1F010BD08380240E1
:103420000024F40040787D012DE9F84F04006ED0AF
:103430002078DFF84C93C007A9F104054AD009F1C0
:1034400004000168C1F38101012908D00068C0F3BC
:10345000810002280AD1D9F80000400206D5286868
:10346000800337D560680028E1D033E06068B0F5AC
:10347000803F10D0B0F5A02F286810D020F4803005
:103480002860286820F4802028606068A8B1FFF7D1
:1034900011FA06460DE0286840F48030F4E740F465
:1034A00080202860F7E700BFFFF704FA801B64283C
:1034B00073D828688003F7D50CE0FFF7FBF90646C0
:1034C00005E000BFFFF7F6F9801B6428F0D82868F4
:1034D0008003F7D42078DFF8AC8280074FF0000A31
:1034E0003ED5A748001D016811F00C0F08D00068F8
:1034F000C0F3810002280BD1D9F80000400207D4A4
:103500002868800716D5E068012800D112E033E171
:10351000E068B8B10120C8F80000FFF7CBF9064613
:1035200005E000BFFFF7C6F9801B0228C0D8286855
:103530008007F7D52868216920F0F80040EAC1002B
:1035400028600DE0C8F800A0FFF7B4F9064604E0D3
:10355000FFF7B0F9801B0228AAD828688007F7D4A3
:103560002078000722D5864F87486169703771B18E
:1035700001210160FFF79EF9064604E0FFF79AF982
:10358000801B022809D838688007F7D50EE0C0F8FC
:1035900000A0FFF78FF9064605E083E0FFF78AF900
:1035A000801B02287ED838688007F7D4207840072F
:1035B00069D5DFF8CCB100270BF13C0BDBF800003C
:1035C000C0000BD4DBF8001041F08051CBF80010A4
:1035D000DBF80000012700F0805000906B4E30684F
:1035E000C00510D4306840F480703060FFF762F995
:1035F000009005E0FFF75EF90099401A022851D8C3
:103600003068C005F6D55E4EA0686C3601280FD034
:103610000528306810D020F001003060306820F0BC
:1036200004003060A068B8B1FFF744F900900FE0E3
:10363000306840F00100F4E740F004003060F7E744
:10364000FFF738F90099411A41F28830814266D873
:1036500030688007F4D50EE0FFF72CF9009007E002
:10366000FFF728F90099411A41F28830814256D873
:1036700030688007F4D4012F05D1DBF8001021F069
:103680008051CBF80010A069C0B33D49091D0968FD
:10369000C1F38101022949D00228504607D0C8F859
:1036A000600000E03BE0FFF705F904463AE04746DA
:1036B000C8F86000FFF7FEF8064604E0FFF7FAF8E6
:1036C000801B02282BD828688001F7D4D4E9070191
:1036D0000843A16A2E4A490802EB0141626A41EAA5
:1036E0008211084394F82C1040EA0161C9F80010D7
:1036F00001203866FFF7DEF8044606E03EE000BF32
:10370000FFF7D8F8001B022809D828688001F7D5F0
:1037100034E000BFFFF7CEF8001B022802D90320D7
:10372000BDE8F88F28688001F4D427E00128F7D09D
:10373000D9F80000E26900F4800191421CD1226AAC
:1037400000F03F01914217D147F6C071626A014013
:10375000B1EB821F10D1A26A4FF0FF3300F4403169
:1037600003EB5202B1EB024F06D194F82C1000F09B
:103770007060B0EB016F01D00120D1E70020CFE7EE
:103780000438024000004742800E4742007000406B
:103790000000FFFF7047704710B590F83C20012AE9
:1037A00022D0012280F83C20CA688C6822F4407242
:1037B00022434C6822F4806222430C6822F40062A7
:1037C00022430C6922F4805222434C6922F40052B5
:1037D0002243C969002322F480420A4301684A64F3
:1037E00080F83C30002010BD022010BD70B590F86C
:1037F0003C20012A31D0012480F83C40022280F88C
:103800003D2003685A689D6822F070060A683243BA
:103810005A60134B02689A4214D0B2F1804F11D013
:10382000104B9A420ED0104B9A420BD00F4B9A423B
:1038300008D00F4B9A4205D00E4B9A4202D00E4B45
:103840009A4204D1496825F08003194391603C30C5
:10385000447000210170084670BD022070BD000058
:10386000000001400004004000080040000C00403F
:1038700000040140004001400018004010B5040061
:1038800003D094F83D0010B107E0012010BD0020E6
:1038900084F83C00204600F015F8022084F83D0032
:1038A000211D206804F09EFA01203D346072607092
:1038B000A070E07020716071A071E07120722070C2
:1038C000002010BD10B586B0044614216846FCF7F0
:1038D00061FF26482268002182420AD124480168FB
:1038E00041F001010160006800F00100059006B0A0
:1038F00010BD1F48001FB2F1804F28D01D4B9A42C7
:10390000F5D1026842F002020260006800F0020095
:10391000059017481438026842F0010202600068FE
:1039200000F001000590402000900220CDE9010147
:10393000CDE9031069461048FEF7BAFE00220521C2
:103940001D20FFF733FC1D20FFF722FCCFE70168A5
:1039500041F0010101600068002200F001000590C3
:1039600005211C20FFF722FC1C20EDE70000014090
:1039700044380240000400400000024090F83D102E
:10398000012901D001207047022180F83D10016813
:10399000CA6842F00102CA6000681149884214D026
:1039A000B0F1804F11D00F4988420ED00E498842A5
:1039B0000BD00E49884208D00D49884205D00D49E8
:1039C000884202D00C49884204D1816801F0070185
:1039D000062903D0016841F0010101600020704711
:1039E000000001400004004000080040000C0040BE
:1039F00000040140004001400018004070B504463A
:103A000090F83C000025012817D0012684F83C607E
:103A1000022084F83D002068826822F0770222F4B8
:103A20007F4282600868502837D00DDC20284ED0B5
:103A300005DC88B3102811D149E0022070BD302880
:103A400045D040280AD13AE060282ED070280CD00A
:103A5000B0F5805F03D0B0F5005F11D001253C3494
:103A6000667000202070284670BD4A6808312068C2
:103A70000AC904F02CFA2068816841F0770109E056
:103A80004A68083120680AC904F021FA2068816870
:103A900041F480418160E2E719E0CA684968206822
:103AA00004F0EAFA5021206806E0CA6849682068F4
:103AB00004F034FB6021206804F013FACFE7CA68F1
:103AC0004968206804F0D8FA40212068F4E72268A9
:103AD00001461046F0E7000070B505460068214930
:103AE00088423ED1287F01283BD11F4C4FF0000176
:103AF0002078002828460ED000F036FB2062296886
:103B000000224A62E1699FED190AF6EE000A884236
:103B100010D9401A12E000F027FBE061012020706C
:103B20002868016A21F00A0101622868016A41F0EF
:103B3000020115E04FF6FF73591A084401EE100A0E
:103B4000B8EE411A21EE000A20EE200A84ED090A9F
:103B500022702868016A21F00A0101622868016A5E
:103B6000016270BD0004004008000020287E0C3D6A
:103B70002DE9F041054690F83C0000260C4601284E
:103B800010D0012085F83C0072B1042A1CD0082A0C
:103B90002CD00C2A50D00126002085F83C0030465D
:103BA000BDE8F0810220FBE7D4E90012E368286851
:103BB00004F074FA2868816921F00C018161286899
:103BC0008169A26811430FE0D4E90012E368286814
:103BD00004F0B6FA2868816921F44061816128689F
:103BE0008169A26841EA02218161D5E72868D4E9A8
:103BF000002C277B036A016A21F480710162C1698C
:103C000023F4206321F0030141EA0C0121F0F00CC0
:103C100039074FF420674CEA116107EA02221A4380
:103C2000C16102622868C16921F00C01C161286884
:103C3000C169A26811432BE02868D4E90021E76834
:103C4000036AD0F820C02CF4805CC0F820C0D0F803
:103C50001CC023F420432CF4407C4CEA012121F4C5
:103C6000704C4FF6FF7101EA07314FF4204741EAEB
:103C70000C0107EA02321A43C16102622868C16975
:103C800021F44061C1612868C169A26841EA02214A
:103C9000C16181E710B5040003D094F83D0010B174
:103CA00007E0012010BD002084F83C00204600F011
:103CB00015F8022084F83D00211D206804F092F8D8
:103CC00001203D3460726070A070E07020716071FE
:103CD000A071E07120722070002010BD70470000BC
:103CE00030B50446002551B104290DD0082910D063
:103CF00094F8410094F84520012811D10EE094F881
:103D00003E0094F84220F7E794F83F0094F84320EF
:103D1000F2E794F8400094F84420EDE7012A01D03E
:103D2000012030BD022059B1042912D0082919D030
:103D300084F8410084F845000C2944D0012540E076
:103D400084F83E0084F842002068C26842F0020213
:103D500010E084F83F0084F843002068C26842F015
:103D6000040207E084F8400084F844002068C26838
:103D700042F00802C2600122206804F09BF8144956
:103D80002068884214D0B0F1804F11D01149884288
:103D90000ED0114988420BD01049884208D01049F2
:103DA000884205D00F49884202D00F49884204D189
:103DB000816801F00701062903D0016841F0010183
:103DC0000160284630BD2068C26842F01002D1E789
:103DD000000001400004004000080040000C0040CA
:103DE0000004014000400140001800402DE9F0416E
:103DF00004460068C66805694FF00007A90713D597
:103E0000B10711D5F91E0161012020772068806972
:103E10008007204602D0FFF75FFE04E000F0A8F81C
:103E2000204600F031F92777680716D5700714D5BA
:103E300021686FF004000861022020772068806903
:103E400010F4407F204602D0FFF746FE04E000F069
:103E50008FF8204600F018F92777280715D5300786
:103E600013D521686FF008000861042020772068CE
:103E7000C0698007204602D0FFF72EFE04E000F064
:103E800077F8204600F000F92777E80616D5F00607
:103E900014D521686FF01000086108202077206891
:103EA000C06910F4407F204602D0FFF715FE04E001
:103EB00000F05EF8204600F0E7F82777E80708D022
:103EC000F00706D021686FF001000861204600F07D
:103ED00041F9280608D5300606D521686FF0800024
:103EE00008612046FFF756FC680608D5700606D51F
:103EF00021686FF040000861204600F04AF9A806EA
:103F00000AD5B00608D521686FF020000861204668
:103F1000BDE8F041FFF73FBCBDE8F08110B586B0C9
:103F2000044614216846FCF735FC0E492068884297
:103F300016D10D480021026842F0100202600068AC
:103F400000F0100005904FF4205000900220CDE9C1
:103F500001010120CDE9031069460448FEF7A8FBE2
:103F600006B010BD00000140303802400010024091
:103F7000704770B5044690F83C0000260D460128B5
:103F80000FD0012084F83C006AB1042A1DD0082A11
:103F90002FD00C2A3FD00126002084F83C00304668
:103FA00070BD022070BD206803F0A4FF2068816905
:103FB00041F0080181612068816921F0040181617B
:103FC000206881692A69114311E0206803F0C2FF6B
:103FD0002068816941F4006181612068816921F470
:103FE00080618161206881692A6941EA02218161D9
:103FF000D2E7206803F0E4FF2068C16941F00801BE
:10400000C1612068C16921F00401C1612068C169F2
:104010002A69114311E0206804F006F82068C1699C
:1040200041F40061C1612068C16921F48061C1610E
:104030002068C1692A6941EA0221C161ACE710B573
:10404000040003D094F83D0010B107E0012010BD3A
:10405000002084F83C00204600F015F8022084F887
:104060003D00211D206803F0BDFE01203D3460723B
:104070006070A070E07020716071A071E0712072BA
:104080002070002010BD70477047000010B5044636
:10409000022249B104290ED0082913D094F8410016
:1040A000012816D0012010BD94F83E000128F9D156
:1040B00084F83E200FE094F83F000128F2D184F804
:1040C0003F2008E094F840000128EBD184F840201C
:1040D00001E084F841200122206803F0EBFE16493C
:1040E0002068164A884201D0904203D1436C43F4C1
:1040F000004343642068884213D0B0F1804F10D051
:104100000F4988420DD00F4988420AD00E49884293
:1041100007D0904205D00D49884202D00C49884210
:1041200004D1816801F00701062903D0016841F03C
:1041300001010160002010BD0000014000040140A9
:104140000004004000080040000C00400040014016
:104150000018004000680349884201D1FEF78EBF75
:1041600070470000001400400246002041B10429BD
:1041700009D008290AD00C2901D11068006C7047B9
:104180001068406B70471068806B70471068C06B98
:104190007047704770477047F8B501680446086873
:1041A000CA684B6910F00F0F4FF000055AD003F0AA
:1041B000010602F49077374365D0C10705D0D105D9
:1041C00003D5616C41F001016164410705D5D90750
:1041D00003D0616C41F002016164810705D5D90704
:1041E00003D0616C41F004016164010707D502F05E
:1041F0002001314303D0616C41F008016164616CBE
:1042000000293BD0800604D5900602D5204604F054
:1042100039F820684069616CC0F3801001F0080132
:10422000014320462BD003F0F8FF20684069400688
:1042300021D52068143050E8001F21F0400140E8EB
:104240000012002AF5D1E06BA8B174490165E06B5A
:10425000FDF7E1FF002811D0E06B016D01B0BDE872
:10426000F040084783060ED593060CD52046BDE8DE
:10427000F84004F007B82046FFF78DFFF8BDFFF7C0
:104280008AFF6564F8BD266B2023012E7ED1C60609
:104290007CD5D6067AD508684868009048694FF002
:1042A000020640064DD5E26B106840684FF48077F7
:1042B0000004000C3AD0A18D814237D9E085D06945
:1042C000B8422DD020680C3050E8001F21F48071D6
:1042D00040E80012002AF5D12068143050E8001F91
:1042E00021F0010140E80012002AF5D120681430C5
:1042F00050E8001F21F0400140E80012002AF5D1EB
:1043000084F84230256320680C3050E8001F21F00B
:10431000100140E80012002AF5D1E06BFDF734FFF0
:104320006663A08DE18D401A81B206E0A18D8142C5
:10433000A8D1D069B842A5D166632046FFF72AFF0D
:10434000F8BDA08DE18D401A81B2E08D0028F7D034
:104350000029F5D020680C3050E8002F22F490722C
:1043600040E80027002FF5D1206800F1140050E844
:10437000002F22F0010240E80027002FF4D184F83A
:1043800042302563206800F10C0000E008E050E8AE
:10439000002F22F0100240E80023002BF2D1CBE7DF
:1043A00005062CD515062AD594F841002128C7D139
:1043B000A068B0F5805F01D12069B0B1206A411CCE
:1043C0002162216800784860E08C401E0004000CE7
:1043D000E084B5D12068C16821F08001C160206807
:1043E000C16841F04001C160F8BD206A0088C0F397
:1043F00008004860206A00F102002062E4E74006FD
:10440000F2D55006F0D5CA68204622F04002CA60B4
:1044100084F8413000F042F9F8BD000077810008CF
:1044200070B5040004D094F84100002510B106E0F6
:10443000012070BD84F84050204600F023F824206D
:1044400084F841002068C16821F40051C160204611
:1044500003F07AFF2068016921F49041016120682E
:10446000416921F02A0141612068C16841F400518D
:10447000C1606564202084F8410084F842006563CF
:10448000002070BD2DE9F04186B006461421684633
:10449000FCF780F93149306888425BD1304800240C
:1044A000016841F010010160006800F01000059003
:1044B0002B481438016841F0010101600068694629
:1044C00000F0010005904FF4C06000900220CDE99B
:1044D000010403200390072004902248FEF7E8F827
:1044E000224D21484FF000672860C5E901744FF460
:1044F0008068C5E903486C614FF44030AC61C5E9A0
:10450000074028466C62FDF76DFF08B1FDF741FCDE
:10451000F563AE63164D144805F108017830C5E91E
:1045200000074020A1E811016C618002AC61C5E97F
:10453000074028466C62FDF755FF08B1FDF729FCDE
:10454000B563002205212520AE63FEF72FFE25204E
:10455000FEF71EFE06B0BDE8F0810000001001402D
:10456000443802400000024040640240080B002032
:10457000680B002090F84230202B01D002207047B9
:1045800021B11AB10023036303F04CBF012070472F
:1045900070B51D481C4C002501781C48241F0D29AE
:1045A00016D0A2798154A079401CA071A079E07145
:1045B000E079642821D36079F8B9172204F1B401B5
:1045C000134800F027F86079401C6071A57014E072
:1045D000A2790A218154A079401CE071A571E0798B
:1045E000642807D30849A5701722B031084800F0A5
:1045F00011F802E00120A0706571BDE87040012251
:1046000001490348FFF7B6BF0C0000202005002039
:10461000A007002070B5044690F84100202801D082
:10462000022070BD09B302B32162A284E28400209B
:104630006064212384F84130A56B154BEB63A56BB7
:10464000144B2B64A56B144BEB64A36B18652068AB
:104650001346001DA56B02462846FDF72DFF30B11D
:1046600010206064202084F84100012070BD216882
:104670006FF0400008602068143050E8001F41F0DF
:10468000800140E80012002AF5D1002070BD000032
:10469000CF810008118200088581000870477047AB
:1046A00010B5084C012280212046FEF7FEF80120BB
:1046B000FDF73AFF20460022BDE810408021FEF7BA
:1046C000F4B8000000000240FEE72DE9F04385B099
:1046D0008846DDE90C5706461C469146142168467B
:1046E000FCF758F83068016821F00101016030469C
:1046F000FEF7E6F811200190002002906946009430
:104700004046FDF7D5FF694648460095FDF7D0FFC6
:10471000A1B201224046FEF7C8F8A9B201224846DC
:10472000FEF7C3F8A1B23B460122404606F05EFE0A
:10473000A9B23B460122484606F058FEA9B2002223
:104740004846FEF7B2F8A9B23B460022484606F0BA
:104750004DFEA1B200224046FEF7A7F8A1B23B46AB
:104760000022404606F042FEA1B201224046FEF77A
:104770009CF8A1B23B460122404606F037FEA9B2A2
:1047800001224846FEF791F8A9B23B46012248466D
:1047900006F02CFE1220CDE9004069464046FDF7A8
:1047A00087FF694648460095FDF782FF306801683B
:1047B00041F4004101603068016821F4004101606A
:1047C0003068016841F0010101603046FEF790F861
:1047D00005B0BDE8F08301684A69D24352050FD4A1
:1047E0006FF480624A61002140F8301F202242733A
:1047F0008173026942F00402026101730120704773
:1048000000207047F8B50446C06A1E460D4617469C
:10481000082807D0012805D010F5803F02D0206B72
:10482000122804D12068016841F4807101601346A8
:1048300000224FF001112046009600F02FF940B100
:1048400020680068C00502D54FF400702064032082
:10485000F8BD2069B0F5804F0ED00620216800EA2F
:10486000D51040F0F000086133463A460B49204627
:1048700000F05CF978B902E005F0FE0000E0E8B273
:1048800021680861054933463A46891F204600F0F1
:104890004DF90028DCD00120F8BD0000080001001F
:1048A0002DE9F84F0446006889460B9D016898463B
:1048B000174641F4806101602068016841F480710D
:1048C000016000954FF0011B0022594620460A9BCB
:1048D00000F0E4F84FF4007A40B120680068C005A9
:1048E00001D5C4F840A00320BDE8F88F216809F085
:1048F000FE0008612B46284920460A9A00F016F966
:10490000F0BB20684169806900902A4620460A99D8
:1049100000F0A1F940B1206C04283AD12068016868
:1049200041F40071016034E0FEB2B8F1010F09D02A
:104930002168380A08612A4620460A9900F08BF956
:104940000028E8D1206806612A4620460A9900F02E
:1049500082F90028DFD12068016841F4807101608C
:1049600000950022594620460A9B00F097F800283F
:10497000B3D1216809F0FF0040F00100086100E0B8
:1049800007E02B46044920460A9A00F0CFF8002899
:10499000AAD00120A8E70000020001002DE9F84399
:1049A000044600680D46DDE90897016898461646FA
:1049B00041F4807101604B4600224FF00111204606
:1049C000009700F06BF848B120680068C00502D578
:1049D0004FF4007020640320BDE8F883216805F0DF
:1049E000FE0008613B464A461549204600F09EF805
:1049F00088B920684169806900903A464946204656
:104A000000F029F948B1206C042804D1206801681D
:104A100041F4007101600120DEE7F5B2B8F1010F49
:104A200009D02168300A08613A464946204600F01C
:104A300012F90028E7D1206805610020CCE70000CA
:104A40000200010070B516460D4604461EE02046E1
:104A5000FFF7C1FE08B1012070BD681C16D0FDF73C
:104A600029FF801BA84200D885B920684069C0434F
:104A700040070BD5002044F8300F20216173A0734C
:104A8000216941F0200121612073E4E72068406939
:104A9000C0434007DBD4002070BD00002DE9F04783
:104AA000984617460D460446C1F30746DDF82090A8
:104AB0002AE000BF18F1010026D0FDF7FBFEA0EBB5
:104AC0000901414502D8B8F1000F1DD12068012E1F
:104AD00016D0806925EA00000004000C12D00020E6
:104AE000B84211D1002044F8300F20216173A07327
:104AF000216941F02001216120730120BDE8F08788
:104B00004069E7E70120EBE72068012E0AD08069C1
:104B100025EA00000004000C06D00020B842C9D0ED
:104B20000020EBE74069F3E70120F7E72DE9F047C4
:104B3000984616460D4604464FF000094FF0200AED
:104B4000C1F3074723E020684069C043400515D4FE
:104B50002068016841F40071016021686FF4806091
:104B60004861C4F8309084F83DA084F83E90216CF0
:104B700041F00401216484F83C9021E0701C06D0CF
:104B8000FDF798FEA0EB0800B04203D816B1012F44
:104B90001FD021E02068012F15D0806925EA000090
:104BA0000004000C18D000BF44F8309F84F80DA01A
:104BB00084F80E90216941F02001216184F80C9065
:104BC0000120BDE8F087406925EA00000004000CE0
:104BD000EAD12068406901E02068806925EA000088
:104BE0000004000CAFD1ECE72DE9F0410025904620
:104BF0000E460446202727E04069C043C0060BD478
:104C000054F8201B6FF01000486125616777A57785
:104C1000206A2062257714E0FDF74CFEA0EB080027
:104C2000B04200D886B920684069C04340060BD521
:104C300044F8305F6773A573206940F0200020615D
:104C400025730120BDE8F08120684169C943490608
:104C5000D2D40020F6E770B516460D4604461EE095
:104C60002046FFF7B8FD08B1012070BD681C16D0C2
:104C7000FDF720FE801BA84200D885B92068406956
:104C8000C04300060BD5002044F8300F202161738B
:104C9000A073216941F0200121612073E4E72068BD
:104CA0004069C0430006DBD4002070BDF1B5044666
:104CB0002DED060B2DED108B84B0B0EE429AF0EE88
:104CC000629A9FED778B9FED78FB9FED790B8DEDD1
:104CD000020B90ED02EB51EC110B53EC1E2B08F084
:104CE00017F841EC100B51EC190B53EC102B07F09B
:104CF000A9FD94ED001B53EC112B07F097FA94EDEE
:104D00000ACB41EC1D0B53EC1C2B51EC190B07F09B
:104D100099FD0E4646EC100B94ED06BB054653EC90
:104D20001B2B51EC100B07F0F3FF94ED08AB53EC89
:104D30001A2B07F0EDFF53EC182B07F077FA53EC22
:104D4000192B07F07FFD94ED041B53EC112B07F09A
:104D50006DFA46EC105B41EC180B53EC1B2B51EC3D
:104D6000100B07F0FDFE46EC105B41EC1B0B53EC07
:104D70001A2B51EC100B07F0F3FE41EC1A0B53EC1D
:104D8000192B51EC1F0B07F05DFD53EC1C2B07F0AA
:104D90004DFA41EC100B51EC180B8DED000B9DED15
:104DA000020B53EC102B07F041FA41EC190B51ECBC
:104DB000180B53EC192B07F0EDFA41EC1C0B53ECDC
:104DC000192B51EC1A0B07F0E5FA9DED140B41EC91
:104DD000190B53EC1D2B51EC100B07F099FF41EC14
:104DE0001F0B51EC1C0B53EC1F2B07F02BFD53EC4E
:104DF0001D2B07F01BFA41EC1D0B53EC1F2B84ED10
:104E000000DB51EC190B07F01DFD53EC1E2B07F0D6
:104E10000DFA41EC100B53EC182B84ED020B51EC06
:104E20001C0B07F00FFD53EC182B07F099FE41EC1B
:104E3000100B53EC1B2B84ED040B51EC1C0B07F0F7
:104E400001FD53EC1B2B07F08BFE41EC100B53ECD8
:104E5000182B84ED060B51EC190B07F0F3FC53EC07
:104E60001A2B07F07DFE41EC100B53EC1B2B84ED4D
:104E7000080B51EC190B07F0E5FC9DED000B53EC12
:104E8000102B07F06DFE41EC100B84ED0A0B04B003
:104E9000B0EE4D0AF0EE6D0ABDEC108B07B0F0BD20
:104EA000000000E04D62503F000000C07493683F76
:104EB000000000E051B89E3F2DE9F0411446DDE9C5
:104EC0000825DDE906681F46B2F1FF3F05D0012A3B
:104ED00089B24FF0000202D107E089B20122FDF74A
:104EE000E4FCB9B22046002204E0FDF7DEFCB9B2D2
:104EF00020460122FDF7D9FCB8F1000F09D0B8F126
:104F0000040F09D03068B8F1080F08D00564BDE877
:104F1000F08130684563FAE730688563F7E7C56379
:104F2000F5E72DE9F04115462DED028BB0EE608AD4
:104F3000DDE90962DDF82C80089CF0EE408A1F460E
:104F4000B2F1FF3F0FD0012A89B24FF0000212D018
:104F5000FDF7ABFCB9B228460022FDF7A6FC40469F
:104F600000F0B0FD2BE089B20122FDF79EFCB9B242
:104F70002846002204E0FDF798FCB9B22846012239
:104F8000FDF793FCF0EE480AB0EE680A404600F0E8
:104F9000A7FDB0EEC00A40F2DC51BDEEC00A10EE33
:104FA000100A884209DD08460AE02168082E10D060
:104FB0000864BDEC028BBDE8F081002800DA002017
:104FC00026B1042EF1D121688863F2E72168486395
:104FD000EFE7C863EDE770B51446069A1D46B2F1D7
:104FE000FF3F04D0012A89B209D0002208E089B22B
:104FF0000022FDF75AFCA9B22046012205E0012259
:10500000FDF753FCA9B220460022BDE87040FDF731
:105010004CBC2DE9F04385B00446012604A8CDE937
:1050200000068946002764258DF81070A1B233462A
:10503000752202954846FDF7B3FD9DF810006828DB
:1050400003D0012005B0BDE8F083B8468DF80C70A0
:1050500003AF0097CDE90165A1B201236B22484659
:10506000FDF7A2FE07208DF80C000097CDE9016541
:10507000A1B2012319224846FDF796FE8DF80C8057
:105080000097CDE90165A1B201231C224846FDF736
:105090008BFE8DF80C800097CDE90165A1B201234C
:1050A0001B224846FDF780FE0020CBE72DE9F047A4
:1050B00014462DED0C8B88B00D469FEDA19B9FED06
:1050C000A2DB9FEDA3BB9FEDA4AB64230E2203A93B
:1050D0008DE80E0081B201233B222846FDF760FDDA
:1050E000BDF80C0040BA00B22080BDF80E1049BADD
:1050F0000FB26780BDF8101049BA09B2A180894685
:10510000BDF8121049BA0FFA81FABDF8141049BA65
:105110000EB22684BDF8161049BA09B261848846D9
:10512000BDF8181049BA0DB2A58407F024FB9FED15
:105130008C8B53EC182B07F085FB41EC100B384699
:1051400084ED020B07F017FB53EC182B07F07AFBEA
:1051500041EC100B484684ED040B07F00CFB9FED6F
:10516000821B53EC112B07F015F941EC100B84ED69
:10517000060B00EE10AAF8EEC00A9FED7D1A80EE35
:10518000810ADFED7C0A304630EE200A84ED100AF9
:1051900007F0F1FA9FED788B53EC182B07F0FAF833
:1051A00041EC100B404684ED0A0B07F0E4FA53EC97
:1051B000182B07F0EFF841EC100B284684ED0C0B90
:1051C00007F0D9FA53EC182B07F0E4F841EC100B78
:1051D00084ED0E0BFDF76EFB694D2968401A07F050
:1051E000E1FA9FED681B53EC112B07F0D3F841EC6B
:1051F0001C0BFDF75FFB2860208810FB00F1A088E6
:1052000010FB001007F0B7FA41EC100B03F0C4FCE0
:10521000B0EE408AF0EE608A53EC192B51EC180B7B
:1052200007F010FA13D0B4F9020007F0A4FA53EC17
:10523000182B07F0AFF841EC100B03F041F953ECD9
:105240001D2B51EC100B07F0FDFA41EC190BB4F9D2
:10525000040007F090FA41EC180BB4F9000040424A
:1052600007F089FA41EC100BB0EE481AF0EE681A1C
:1052700003F09AFA53EC1D2B51EC100B07F0E2FAF5
:1052800041EC180B53EC1B2B07F0A0FA08D294ED5D
:10529000300B53EC1A2B51EC100B07F0D1FB0FD352
:1052A00053EC1A2B51EC180B07F0CAFB0FD294EDFC
:1052B000300B53EC1B2B51EC100B07F087FA06D286
:1052C00084ED1E8B84ED308B94ED300B0FE094ED6C
:1052D0000C1BB0EE4C2AF0EE6C2AB0EE480AF0EE51
:1052E000680A04F17800FFF7E1FC84ED300B03F06D
:1052F0004BFB53EC1A2B51EC100B07F0A1FB09D21E
:1053000094ED0A0B51EC100B06F052FF41EC100B20
:1053100084ED0A0B94ED0A1BB0EE4C2AF0EE6C2AD9
:10532000B0EE490AF0EE690A04F14800FFF7BEFC4E
:1053300084ED2E0B08B0BDEC0C8BBDE8F0870000AF
:105340000000000000000000F8C1631ADCA54C401A
:1053500000000000008056C00000000000805640A1
:10536000000000000000103F000000000029CC40B9
:105370000000AA43B81E1242000000000060604016
:10538000000000200000000000408F407FB5002496
:10539000144800940194029411490394C0E9001444
:1053A00084600461047680F820400F49C0E90A1443
:1053B0000125C561C46080F830404561FCF795FD6A
:1053C00008B172B6FEE70095CDE90154694605487B
:1053D000FCF7E2FC002801D072B6FEE77FBD0000BA
:1053E00000200140840500200100000F2DE9F04F4E
:1053F00087B014216846FBF7CDF95A4800240168AC
:1054000041F020010160016801F02001059101686F
:1054100041F080010160016801F08001059101689F
:1054200041F001010160016801F00101059101688D
:1054300041F040010160016801F0400105910168FF
:1054400041F010010160016801F01001059101684F
:1054500041F002010160016801F00201059101685B
:1054600041F004010160016801F004010591016847
:1054700041F0080101600068DFF8ECA000F00800CE
:105480000590002280215046FDF70FFADFF8DCB0CE
:105490004FF4C046002231465846FDF706FA4EF258
:1054A0005607002239463248FDF7FFF94CF28008D2
:1054B000002241462F48FDF7F8F94FF440690022D9
:1054C00049462D48FDF7F1F9002207212B48FDF749
:1054D000ECF9802000900125CDE901546946504641
:1054E0000394FDF7E5F80096CDE901546946584666
:1054F0000394FDF7DDF80097CDE9015469461C4897
:105500000394FDF7D5F8CDF80080CDE90154694644
:1055100018480394FDF7CCF8CDF80090CDE901547C
:10552000694615480394FDF7C3F841F23000CDE910
:105530000004694610480294FDF7BAF8B011CDE9AD
:10554000000469460E480294FDF7B2F80720009067
:10555000CDE90154694609480394FDF7A9F807B05D
:10556000BDE8F08F303802400000024000140240D5
:10557000001802400010024000040240000C0240EB
:105580000008024010B596B000240F9410941194B6
:10559000129413941C2168461494FBF7FBF8202105
:1055A00007A8FBF7F7F82C482A4901607F21C0E9DA
:1055B000011440F2DC51C0E9031444618461FEF738
:1055C0005DF908B172B6FEE74FF480500F900FA955
:1055D0002148FEF713FA08B172B6FEE71E48FEF73F
:1055E0002EFD08B172B6FEE7139413A91A4814945D
:1055F000FEF7FCF808B172B6FEE76020CDE90004C2
:105600000294039404940594042269461248069473
:10561000FEF7AFFC08B172B6FEE7082269460E48F5
:10562000FEF7A7FC08B172B6FEE707940894099448
:105630004FF400500A94CDE90B4007A906480E9498
:10564000FEF7AAF808B172B6FEE70348FEF766FC5B
:1056500016B010BD00000140C806002010B586B08D
:1056600000241648009401940294039404944FF08B
:105670008041059401602B21C0E901144FF6A97106
:10568000C0E903148461FEF7F9F808B172B6FEE7C9
:105690004FF48050009069460848FEF7AFF908B112
:1056A00072B6FEE7049404A904480594FEF79EF838
:1056B000002801D072B6FEE706B010BD100700202A
:1056C00010B58AB0002422480494059406940794E7
:1056D000089409940094019402941C490394016075
:1056E0004721C0E901144FF6FE71C0E9031484613B
:1056F000FEF7C4F808B172B6FEE74FF4805004908C
:1057000004A91348FEF77AF908B172B6FEE710480B
:10571000FEF7C0FA08B172B6FEE7089408A90C4873
:105720000994FEF763F808B172B6FEE70120CDE9EF
:10573000004002940022694605480394FEF718FAD7
:10574000002801D072B6FEE70AB010BD0004004088
:1057500058070020FEE7FEE708B505230092002267
:1057600000F043F808BD70B504460D4600F06DF931
:1057700030222946204600F0ADF801222946204675
:10578000FFF7EAFF002070BD2DE9F0410025074634
:105790008846062606EB8500C4B200232246414611
:1057A000384600F061F9601CC2B200234146384619
:1057B00000F05AF9A01CC2B200234146384600F05E
:1057C00053F9E41CE2B200234146384600F04CF99C
:1057D0006D1CEDB2102DDDD3BDE8F08108B50723B7
:1057E0000092002200F001F808BD2DE9FF5F1F467E
:1057F0000E9E9346044606B1012601250DF10C09C3
:105800004FF00A08CDF80090CDE901581FFA81FA4F
:1058100020462B465A465146FDF7C2F9C0B905FA53
:1058200007F040F080019DF80C00CDF8009088430F
:1058300006F00101B94001438DF80C10CDE9015883
:10584000204601235A465146FDF7AEFA002800D003
:10585000012004B0BDE8F09FF8B54FF480556C1EF0
:10586000069FAB4200D32346002677B133B1A34253
:1058700010D0A3F6FF735B429BB209E02B46009663
:1058800000E0002300F008F8F8BDA342F6D00BB109
:105890000093F6E70095F4E77FB50625089C8DF8A0
:1058A0000C301B0A8DF80D308DF80E40230A05EBE5
:1058B00082028DF80F300A25042403AB8DE83800EE
:1058C000D2B289B20123FDF76FFA002800D001207F
:1058D00004B070BD7FB5044640F2F6500D468242DA
:1058E00001D303202EE0182A01D8FF202AE0104619
:1058F00006F058FF9FED231B53EC112B06F0A2FF7F
:1059000041EC100B53EC102B9FED200B51EC100BC6
:1059100006F040FD9FED1F1B53EC112B07F0F8F92B
:1059200006F052FC07F0DEFA9FED1C1B53EC112B26
:1059300006F07CFC41EC100B03F032F851EC100B3C
:1059400006F0ECFE8DF80C0001222946204600F0FE
:1059500075F80A22012103A88DE80700A9B22046A4
:105960000123FE22FDF720FA00222946204600F0FE
:1059700065F8012229462046FFF730FF04B00020D9
:1059800070BD0000000000000000B04000000000FA
:1059900084D77741000000000000F03F00000000C5
:1059A0000000E03FF8B5B5EEC00A00240F46F1EE66
:1059B00010FA19491546064602D29FED180A05E06D
:1059C00010EE100A884201DD9FED150A10EE100A54
:1059D00007F088FA9FED131B53EC112B06F032FFF2
:1059E0009FED121B53EC112B06F0D4FC9FED111B05
:1059F00053EC112B06F01AFC06F0E6FB00EE100A41
:105A00002A463946BCEEC00A009410EE100A83B252
:105A10003046FFF721FFF8BD0000344300000000CE
:105A200000003443000000000080764000000000C9
:105A300000806640000000000000594008B50423C3
:105A400000920022FFF7D1FE08BD1CB506218DF89B
:105A500004100A210091012301AA0021FDF706F894
:105A6000002800D001201CBD1CB589B28DF804208F
:105A70004FF0FF328DF805300092022301AAFCF7A7
:105A8000F5FF1CBDC0ED0A1A80EC030A9FED0C0A5D
:105A900080ED030A80ED040A80ED050A80ED060A18
:105AA00080ED070A80ED080A80ED090AB0EE000AD1
:105AB00022EE000A80ED0B0A80ED0C2A70470000F0
:105AC000000000009FED050A80ED050A80ED040A44
:105AD00080ED030A80ED070A704700000000000017
