:020000040800F2
:10000000405B0020550300080B570008E14600083C
:1000100009570008A91A0008198400080000000008
:100020000000000000000000000000009502000831
:10003000911D000800000000F1020008B57C0008D6
:100040006F0300086F0300086F0300086F030008C8
:100050006F0300086F0300086F0300086F030008B8
:100060006F0300086F0300086F0300086F030008A8
:100070006F0300086F0300086F0300086F03000898
:100080006F0300086F0300086F0300086F03000888
:100090006F0300086F0300086F0300086F03000878
:1000A0006F0300086F0300086F0300086F03000868
:1000B000757D0008817D00086F0300086F0300084C
:1000C0006F0300086F0300086F0300086F03000848
:1000D0006F0300080D8400086F0300086F03000819
:1000E0006F0300086F0300086F0300086F03000828
:1000F0006F0300086F0300086F0300086F03000818
:100100006F0300086F0300086F0300086F03000807
:100110006F0300086F0300086F0300088D7D00085F
:100120006F0300086F030008D51C00086F03000868
:100130006F0300086F0300086F0300086F030008D7
:100140006F0300086F0300086F0300086F030008C7
:100150006F0300086F030008E11C00086F0300082C
:100160006F0300086F0300086F0300086F030008A7
:100170006F0300086F0300086F0300080000000011
:100180006F0300086F03000800F002F800F072F837
:100190000AA090E8000C82448344AAF10107DA45E2
:1001A00001D100F067F8AFF2090EBAE80F0013F0C2
:1001B000010F18BFFB1A43F001031847FCD00000E1
:1001C0001CD100000A444FF0000C10F8013B13F062
:1001D000070408BF10F8014B1D1108BF10F8015BA0
:1001E000641E05D010F8016B641E01F8016BF9D193
:1001F00013F0080F1EBF10F8014BAD1C0C1B09D1EA
:100200006D1E58BF01F801CBFAD505E014F8016B5B
:1002100001F8016B6D1EF9D59142D6D370470000ED
:100220000023002400250026103A28BF78C1FBD8FF
:10023000520728BF30C148BF0B60704766290CF0D9
:10024000A486642900F03281002070471FB50CF0AD
:1002500092FE00F02DFE0400002000210BF06AFF4A
:10026000401C6060002000210BF04EFFE0601FBDCD
:1002700010B510BD00F086FF1146FFF7E7FF09F04B
:100280008BFD00F0B2FF03B4FFF7F2FF03BC00F0F8
:10029000B3FF00002C4B19680868B0E8F04F80F3FA
:1002A0000988BFF36F8F4FF0000080F3118870470B
:1002B0000000000008480068006880F308884FF0DC
:1002C000000080F3148862B661B6BFF34F8FBFF3AE
:1002D0006F8F00DF00BF00BF08ED00E0DFF80C000B
:1002E000016841F470010160704700BF88ED00E0D3
:1002F000EFF30980BFF36F8F134B1A681EF0100FD6
:1003000008BF20ED108A20E9F04F106009B44FF0CB
:10031000500080F31188BFF34F8FBFF36F8F0BF046
:100320000BF84FF0000080F3118809BC19680868C9
:10033000B0E8F04F1EF0100F08BFB0EC108A80F349
:100340000988BFF36F8F704704040020EFF3058026
:10035000704700000948804709480047FEE7FEE76C
:10036000FEE7FEE7FEE7FEE7FEE7FEE7FEE7FEE765
:1003700004480549054A064B70470000657D0008A2
:100380008901000840550020405B002040570020B4
:100390004057002053EA020C00F069802DE9F04B31
:1003A0004FF00006002B1FBFB3FA83F503FA05F4E4
:1003B00024FA05F65E4012BF1643B2FA82F502FA3D
:1003C00005F4C5F120051EBF22FA05FC44EA0C0421
:1003D000203556EA044C4FEA144418BF641C4FF011
:1003E00000084FF00009904271EB030C39D300294B
:1003F00019BFB1FA81F701FA07F6B0FA80F700FAEF
:1004000007F6C7F120071EBF20FA07FC46EA0C06D4
:100410002037B6FBF4FCA7EB0507103F07F01F0BD6
:10042000CBF120060CFA0BFB2CFA06F644BFB346C0
:100430000026202FA4BF5E464FF0000B5BEA060C9F
:1004400008BF4FF0010B19EB0B09ABFB027C48EB2B
:100450000608C01B06FB02CC0BFB03CC71EB0C01A6
:10046000C1E70B46024641464846BDE8F08B13B54E
:100470004FF000004FF00001AFF30080BDE81C40DA
:10048000704700000FB41CB5074B06AA7B446946B1
:100490000090059800F06BFC0020694600F07AFCA3
:1004A0001CBC5DF814FB0000050900002DE9F041BB
:1004B0000646002410687529314616A511D0AFF301
:1004C0000080002803DAC0F1000013A507E03168BE
:1004D0008A0701D511A502E0490704D510A501241A
:1004E00001E0AFF3008000210A2306F1240707E0B2
:1004F000B0FBF3F203FB1200303078541046491C75
:100500000028F5D123462A463046BDE8F04100F0E8
:10051000BCB90000000000002D0000002B0000000E
:10052000200000002DE9F0474FF0000A89460446FC
:10053000C0F820A02046E1688847002876D025280A
:1005400006D0D4E901219047206A401C2062F1E7DF
:10055000E168204600258847C4F81CA0064600270D
:10056000C4F818A02A2E09D0304608F0B9FB38B3D9
:1005700004EB8708303EC8F8186019E059F8041BEE
:10058000204604EB87029161E1688847012F064607
:1005900018D1E069002820DA25F020051DE0D8F800
:1005A000180000EB800006EB40003038C8F8180057
:1005B0002046E1688847064608F092FB0028EED105
:1005C000012F0AD02E2E08D12046E16888477F1CD3
:1005D0000646022F45F02005C4DBA069002803DA97
:1005E000404245F00105A061E80701D025F0100563
:1005F000B6B1A6F14100192802D8203645F40065AD
:100600004A463146204625604D46FFF717FE58B151
:10061000012806D0ED1D25F0070000F1080989E743
:1006200004E005F1040985E730468AE7206ABDE861
:10063000F08770B5064600F019F9046805463046A3
:100640000A22002100F0ABFB2C6070BD014A00F0D3
:10065000DFBB00008404002010B5431C02E010F84A
:10066000011B71B18107FAD14FF0013202C88C1A17
:100670008C4314EAC211F9D0C01A0A0603D0C01E76
:1006800010BDC01A10BD0A0401D0801E10BD0902A1
:10069000FCD0401E10BD032A40F2308010F0030C45
:1006A00000F0158011F8013BBCF1020F624498BFC5
:1006B00011F801CB00F8013B38BF11F8013BA2F162
:1006C000040298BF00F801CB38BF00F8013B11F0DD
:1006D000030300F02580083AC0F0088051F8043B7D
:1006E000083A51F804CBA0E80810F5E7121D5CBFEA
:1006F00051F8043B40F8043BAFF30080D20724BF1D
:1007000011F8013B11F801CB48BF11F8012B24BFB0
:1007100000F8013B00F801CB48BF00F8012B7047FF
:1007200010B5203AC0F00B80B1E81850203AA0E88C
:100730001850B1E81850A0E81850BFF4F5AF5FEAC0
:10074000027C24BFB1E81850A0E8185044BF18C973
:1007500018C0BDE810405FEA827C24BF51F8043B1A
:1007600040F8043B08BF7047D20728BF31F8023B6E
:1007700048BF11F8012B28BF20F8023B48BF00F802
:10078000012B704702F0FF0343EA032242EA0242D0
:1007900000F062BB4FF0000200B513469446964647
:1007A000203922BFA0E80C50A0E80C50B1F1200184
:1007B000BFF4F7AF090728BFA0E80C5048BF0CC032
:1007C0005DF804EB890028BF40F8042B08BF704790
:1007D00048BF20F8022B11F0804F18BF00F8012B02
:1007E000704700004FF0013C50F8042B51F8043BD7
:1007F0009A4221D1A2EB0C03934313EACC1317D1F5
:1008000050F8042B51F8043B9A4215D1A2EB0C038B
:10081000934313EACC130BD150F8042B51F8043B4B
:100820009A4209D1A2EB0C03934313EACC13DBD019
:100830004FF00000704700BFD01A01BAB1FA81F141
:1008400001F0180122FA01F0CB40C1F12001DBB226
:10085000C0B2C01A2CFA01F3D11A914311EAC311A4
:10086000E6D17047704770477047000000487047F6
:10087000DC54002010B5FFF7F9FF006810BD10B57B
:100880000446FFF7F3FF046010BD2DE9F0470D4665
:1008900099469246044600F124080168880604D56A
:1008A000E06921F01001216000E00120A84202DD92
:1008B000A0EB050700E00027A16907EB050202EBAA
:1008C0000900A1EB0000A0612078C00602D42046F8
:1008D000AFF30080002608E0D4E901211AF80600F1
:1008E0009047206A401C761C20624E45F4DB20783D
:1008F000C0060AD52046AFF3008006E0D4E9012106
:1009000030209047206A401C2062381EA7F1010762
:10091000F4DC07E0D4E9012118F805009047206ACB
:10092000401C2062281EA5F10105F3DC2046AFF330
:1009300000802078000602D50220BDE8F087012063
:10094000FBE770472DE9FF4F0C461E464FF0FF377F
:100950008BB0D2E90001DDF860800A908A46C1F3CD
:100960000A5505B93D46002108464FF00000BAF18E
:10097000000F00F4400005DA00EB80004FF4400166
:1009800001EA50004FEA9059B9F1010F00DDB94674
:100990000A9850EA4A000ED044F61050A5F2FF35EE
:1009A00045432F14B8F1000F1ED07542291E1EDDDD
:1009B000C9F100021CE0B8F1010F4FF0000001D0B6
:1009C000302103E0F24305E02154401CB042FBDB40
:1009D00030460022002121540B99C1F80880C1E95A
:1009E00000200FB0BDE8F08FBD1B6D1CDEE74A464E
:1009F00000DA694206A800F035FB06AB07CB03AB73
:100A000007C350460A9900F0FEFB8DE80700A0F5E9
:100A100000501F3800900398002D09DD42F21F019D
:100A20004A46084403A90390684600F05DFE08E0CA
:100A3000A0F500504A461F3803A90390684600F00D
:100A400067FE8DE807000004000C03D04FF0FF3074
:100A5000410800E01046B8F1000F03D000220092D8
:100A600015461FE0751E06D400F026FA02F130028A
:100A700062556D1EF8D5B3460122084302D000220C
:100A80007F1C04E02078302801D100227F1E002A3C
:100A9000099787D01DE0112D07DA00F00DFA3032EA
:100AA00062556D1C50EA0102F5D108430FD10021B7
:100AB000681E05E0235C625C6354491C2254401E9E
:100AC0008142F7DBAB46A81B401E099001E000986D
:100AD00048B1002004F80B000B98099AC0F8088070
:100AE000C0E9002B7DE711264FF000085AE72DE9F9
:100AF000F04F88460446D21D22F0070191B0D1E99B
:100B00000001CDE90A0107F088FC02460B98C00FEE
:100B100001D02D2007E02068810701D52B2002E0BD
:100B2000202101EAC000032A099001D0072A05DB31
:100B300003464146204600F005FA0FE12078800682
:100B400001D5E06900E00620B8F1650F814606D0C6
:100B5000B8F1660F18D0B8F1670F72D132E00020FB
:100B6000B9F1110F009001DB112301E009F101033C
:100B70000AAA01A90CA8FFF7E5FEDDE90C70002622
:100B800009F10105834648E001204B4600904FF0F3
:100B900000470AAA01A90CA8FFF7D4FEDDE90DB0B1
:100BA0000C995D46002618B909F1010001EB00051A
:100BB000B9EB050003D4C0F1FF3609F10105A5EB3F
:100BC00009002BE0B9F1010F01DA4FF00109002013
:100BD000B9F1110F0090484601DD112300E00346F2
:100BE0000AAA01A90CA8FFF7ADFEDDE90C704D467D
:100BF00000268346207800070AD4AB4500DA5D461C
:100C000001A8012D04DD411911F8011C302907D07C
:100C10004F4502DA17F1040F04DA0120824610E092
:100C20006D1EEEE7002F02DCED1B3E4403E0781C56
:100C3000A84200DD0546A7EB060000F1010A4FF0CF
:100C400000472078000703D4AA4501DB4FF0FF3AA4
:100C50000021B7F1004F0DF143088DF8431023D068
:100C600002202B23002F01DA7F422D234FF00A0CA4
:100C7000011EA0F1010000DC4FB197FBFCF10CFB61
:100C800011720F4602F1300208F8012DF0E7A8F1C9
:100C9000010003702188090501D5452100E0652187
:100CA000A0F1010800F8011C09980FA9A1EB0807A1
:100CB00007F1070700B1012000EB050101EBEA7025
:100CC000A1693844A1EB0000A0F10100A0612078E7
:100CD000C00602D42046AFF30080099830B1D4E9B1
:100CE00001219047206A00F1010020622078C006AF
:100CF00020D52046AFF300801CE0002E04DBB34576
:100D000002DD01A8805D00E03020D4E90121904798
:100D1000206A761C401CBAF1010A20620AD100F058
:100D2000C7F8C0680168405CD4E901219047206A97
:100D3000401C2062281EA5F10105DEDC07E0D4E995
:100D4000012118F8010B9047206A401C2062381ED0
:100D5000A7F10107F3DC2046AFF30080022011B0B9
:100D600040E6000001694A1C02610878704700B53E
:100D70008FB0CDE901310021059105497944CDE9D4
:100D8000031011466846FFF7CDFB0FB000BD000011
:100D9000E5FFFFFF0A6802F8010B0A6070472DE9C2
:100DA000F04791460F4680460446002614F8015B42
:100DB0002DB100F075F80068405DC007F6D12B2D0D
:100DC00002D02D2D18D0641E4A463946204600F028
:100DD000F9F827B13968A14201D1C7F800804FF076
:100DE000020471050BD54042002803DDFFF73EFDEC
:100DF0000460A007BDE8F08746F48066E4E70028B9
:100E0000F8DAFFF733FD04606FF00040F2E700000E
:100E10002DE9F04115460E46040002D12C6804B9B4
:100E20000BA4204600F0A0F90444207870B12746B6
:100E30003146384600F088F90444207810B100208B
:100E400004F8010B38462C60BDE8F0810027F9E773
:100E5000000000004FF000020429C0F0128010F0E2
:100E6000030C3FF499ACCCF1040CBCF1020F18BF99
:100E700000F8012BA8BF20F8022BA1EB0C01FFF713
:100E80008BBC5FEAC17C24BF00F8012B00F8012B6A
:100E900048BF00F8012B704700487047DC54002021
:100EA00010B500F005F8001D10BD00BF89B20000AC
:100EB00000487047FC54002030B5B0F10A024FEAF8
:100EC000900E71F100034EEA817EB0EB0E0061EBF3
:100ED00091014FEA101E4EEA017E10EB0E0041EB2D
:100EE00011114FEA102E4EEA016E10EB0E0041EB8D
:100EF00011214FEA104E4EEA014E10EB0E0041EB6D
:100F00001141401841F100014FEAD00040EA417020
:100F10004FEAD10110EB80054FEA810444EA907456
:100F200044EB01046D1944EB0404521BA3414FF040
:100F3000000348BF0A3200D530BD401C41F100011A
:100F400030BD00002DE9F0411F460446032601682C
:100F5000072A01F4006004DB08B116A505E016A518
:100F600003E008B115A500E015A521F010002060F0
:100F7000A069C01EA0610FB1401EA0612046AFF362
:100F800000804FB1D4E9012138469047206A401CC7
:100F90002062C01C206206E0206AFAE7D4E9012141
:100FA00015F8010B9047761EF8D22046AFF300806B
:100FB000BDE8F0814E414E006E616E00494E460024
:100FC000696E66002DE9F05F824615468B46002764
:100FD0000AF10104B9460078302801D09DB113E030
:100FE00014F8010B0127782803D0582801D045B107
:100FF0000AE00DB1102D07D1002714F8010B1025C0
:1010000002E0082500E00A250026B0460EE005FBB8
:10101000080005FB06F101271FFA80F801EB1046D6
:10102000B6F5803F00D3B94614F8010B294600F00D
:10103000CEF80028EBDABBF1000F05D00FB1641E2B
:1010400000E05446CBF80040B9F1000F06D0FFF79E
:101050000DFC02210160C81EBDE8F09F48EA064071
:10106000FAE700002DE9F047814616468AB0354878
:101070007844D0E9002380680092CDE901303148FE
:1010800078440C38D0E90223006903924FF037020C
:10109000CDE9043041F69B30014491FBF2F0A0F120
:1010A000800502FB10141B3C02D56442012000E0C5
:1010B0000020DFF890A080460027FA44AAF1C60A73
:1010C0000DE0E00709D03246684607EB47010AEB1E
:1010D000810100F01DFB8DE8070064107F1C002CCF
:1010E000EFD1184F7F44B43F17E0E80713D007EB68
:1010F00004100DF1180A90E80E00AAE80E00C0686E
:10110000F04201D198190890324606A903A800F0D0
:10111000FFFA03AB07C36D10641C002DE5D1324606
:101120006946B8F1000F03A802D000F0DDFA01E033
:1011300000F0EEFAC9E90001C9F808200AB0BDE8DC
:10114000F087000098C1000030B503461D781DB13E
:101150000A4603E0AC4201D1181A30BD12F8014B27
:10116000002CF7D15B1CF1E730B503461D783DB18B
:101170000A4612F8014B1CB1AC42FAD15B1CF5E7F0
:10118000181A30BD7546FFF787FEAE460500694662
:10119000534620F00700854618B020B5FFF7E8F861
:1011A000BDE820404FF000064FF000074FF0000868
:1011B0004FF0000B21F00701AC46ACE8C009ACE8E9
:1011C000C009ACE8C009ACE8C0098D4670473A28B0
:1011D00000D2303820F02002412A01D3A2F137009A
:1011E000884201D34FF0FF3070470446AFF30080D0
:1011F0002046FFF748F8000001491820ABBEFEE783
:101200002600020070475FEA400C08BF91F0000F13
:101210004FEA8C234FEAC12243EA51514FEA1C5056
:1012200018BF00F5F0404FEA300018BF41F0004110
:101230005FEA6C5C00F02980BCF1FF3F08BF40F022
:1012400080407047130C06BF12044FF0100C4FF093
:10125000000C130E04BF12020CF1080C130F04BF94
:1012600012010CF1040C930F04BF92000CF1020C5C
:10127000D30F04BF52000CF1010C11464FF00002D5
:10128000A0F11F00A0EB0C00704711F0004F08BF49
:10129000704731F000413FF4D5AF0B0C06BF090495
:1012A0004FF0100C4FF0000C0B0E04BF09020CF1B4
:1012B000080C0B0F04BF09010CF1040C8B0F04BFC9
:1012C00089000CF1020CCB0F04BF49000CF1010C9A
:1012D000CCF12003A0EB0C0022FA03F302FA0CF28B
:1012E00041EA030100F10100704720F07F4C80EAE1
:1012F000030023F07F47ACEB070303F57C5300F0BA
:10130000004003F1FF032DE980494FEA154B09B472
:101310004FEA144325EA0B4E24EA03480FF2042651
:1013200006EB132749083E785FEA320203FB0667A3
:10133000C7F5000707FB06F64FEA54374FEAD646D3
:1013400006F1020607FB066CCCF1005C4FEA1C4775
:101350002CEA074C07FB06F40CFB06F504EB1546DC
:101360004FEA961634BF00204FF000404FEAD137C5
:1013700006FB07FC4FEA1C4C0CFB0BF7D21B03FBD4
:101380000CF761EB07010CFB0EF7B0EB074072EBBB
:1013900017420CFB08F734BFA2EB0742B2EB07423F
:1013A00061EB17414FEA0C444FEA910706FB07FC3B
:1013B0004FEA1C4C0CFB0BF7B0EBC74072EB5732FB
:1013C00003FB0CF734BFA2EBC742B2EBC74261EBA1
:1013D00057310CFB0EF7B0EBC70072EB57720CFBEA
:1013E00008F734BFA2EBC702B2EBC70261EB57713B
:1013F000039F4FEA816141EA921104EBCC044FEA6A
:10140000D1374FEA826206FB07FC42EA90124FEAAC
:1014100080604FEA1C4C0CFB0BF7D21B03FB0CF754
:1014200061EB07010CFB0EF7B0EB074072EB1742C4
:101430000CFB08F734BFA2EB0742B2EB074261EBAB
:1014400017414FEA8C554FEA910704EB9C2406FBA9
:1014500007FC4FEA1C4C0CFB0BF7B0EBC74072EBE0
:10146000573203FB0CF734BFA2EBC742B2EBC742C3
:1014700061EB57310CFB0EF7B0EBC70072EB577204
:101480000CFB08F734BFA2EBC702B2EBC70261EB5B
:10149000577115EB4C254FEA816141EA92114FEAF1
:1014A00082624FEAD13742EA901206FB07FC44F110
:1014B00000044FEA80604FEA1C4C0CFB0BF7D21B78
:1014C00003FB0CF761EB07010CFB0EF7B0EB0740D9
:1014D00072EB17420CFB08F734BFA2EB0742B2EBEA
:1014E000074261EB174115EB1C154FEA813141EAC8
:1014F00092414FEA823242EA90424FEA80304FEA0C
:101500000C7644F1000448EA03434EEA0B484FF0DE
:10151000000EB2EB080C71EB030724BF624639469C
:101520004EEB0E0E4FF0000B0018524149414BEBB1
:101530000B0BB2EB080C71EB03077BF1000B24BF24
:10154000624639464EEB0E0E4FF0000B001852412A
:1015500049414BEB0B0BB2EB080C71EB03077BF132
:10156000000B24BF624639464EEB0E0E51EA0207CD
:1015700018BF46F0010616EB0E7655F1000254F145
:10158000000103D5BDE88901BDE80088BDE88901F7
:10159000BDE80048B619524141EB0101A3F1010336
:1015A000704780807F7E7D7C7B7A797877767675D0
:1015B0007473727171706F6E6E6D6C6C6B6A6A6948
:1015C0006868676666656464636362616160605FE2
:1015D0005F5E5E5D5D5C5C5B5B5A5A59595858575B
:1015E00057565655555554545353525252515150C3
:1015F00050504F4F4F4E4E4D4D4D4C4C4C4B4B4B16
:101600004A4A4A494949484848474747474646465B
:101610004545454444444443434343424242424196
:101620004141002B26D4770021D01CB54FEA370763
:1016300003B44FF010004FF010014FF000000FBC4A
:10164000BDE810400BF1010BBBF1010F08BF5FEAD1
:10165000170722BF12F1010211F101014FF0004101
:1016600043F1000300F0004043EA00007047F9D363
:101670005708DAE746EA064613F1400F4FEA1646E6
:101680001FDD13F1200FDFBF16430A460021203370
:101690005B42C8D0C3F1200746EA064602FA07F7C4
:1016A0004FEA164646EA0706C3F1200722FA03F27C
:1016B00001FA07F721FA03F14FF0000342EA0702AB
:1016C000B1E746EA020646EA06464FEA164646EA09
:1016D0000106BCBF46EA0646360C4FF000034FF049
:1016E00000024FF000019EE72DE9C048934630B458
:1016F00091E8380007C831EA400C48BF34EA430C8F
:1017000003D5FFF7F2FDFFF78CFFF0BCBDE80088C2
:101710002DE9C048934630B491E8380007C810F06E
:10172000804F08BF13F0804F03D100F005F8FFF79A
:1017300078FFF0BCBDE8008820F07F4780EA030016
:1017400023F07F4C07EB0C03A3F57C5300F0004023
:10175000A3F1FE0392F0000F00F0B38095F0000FAC
:1017600000F077802DE901494FEA11404FEA144615
:1017700021EA004800FB06FC24EA064708FB06F6BF
:1017800007FB08F800FB07F718EB06484CEB164C74
:101790004FEA124B18EB07484FEA15464CEB17403F
:1017A00022EA0B4E0BFB06FC25EA06470EFB06F66B
:1017B00007FB0EFE0BFB07F71EEB064E4CEB164C21
:1017C0004FF000061EEB074E4CEB174B18EB0B08C7
:1017D00040F1000018EB0E0B58EB000840F1000040
:1017E0008F1A4FF000013CBFC943661B14BFB5EB15
:1017F000040C00213CBFC943F61B4FEA17444EEAD4
:101800008E0E27EA04454FEA1C4704FB07622CEAC8
:10181000074C05FB07F70CFB05F604FB0CFC16EB6D
:10182000074642EB174216EB0C4642EB1C421BEB01
:10183000060658EB0202414146EA9E0601D5BDE884
:101840000189B619524141EB0101A3F10103BDE841
:1018500001894FEA14454FEA114724EA054621EA77
:10186000074C05FB07F406FB07F70CFB06F105FB2D
:101870000CFC11EB074144EB17444FEA124711EB04
:101880000C4144EB1C4422EA074C05FB07F206FB23
:1018900007F70CFB06F605FB0CFC16EB074642EBC4
:1018A000174216EB0C4642EB1C456A1854F1000136
:1018B00048BF7047B619524141EB0101A3F1010342
:1018C000704795F0000F37D04FEA11424FEA1447A6
:1018D00021EA024624EA074C02FB07F106FB07F760
:1018E0000CFB06F402FB0CFC14EB074441EB174124
:1018F0004FEA154714EB0C4441EB1C4125EA074C19
:1019000002FB07F506FB07F70CFB06F602FB0CFCD7
:1019100016EB074645EB174516EB0C4645EB1C420C
:10192000121951F1000148BF7047B619524141EBFD
:101930000101A3F1010370474FEA14454FEA114733
:1019400024EA054621EA074C05FB07F106FB07F7E9
:101950000CFB06F24FF0000605FB0CFC12EB0742F5
:1019600041EB174112EB0C4251EB1C4148BF704751
:10197000921841EB0101A3F101037047464910B5EC
:101980004A6822F440324A604A6843681A434A600F
:1019900001684A6822F480724A6001684A680369F3
:1019A00042EA03224A6001684A6822F040724A60B3
:1019B00001684A6883681A434A6001688A6822F4A9
:1019C00000628A6001688A68C3681A438A60334A81
:1019D000816A914201688A6822F070628A600168B7
:1019E0008A680CD0836A1A438A6001688A6822F088
:1019F00040528A6001688A68C36A1A4301E022F093
:101A000040528A6001688A6822F002028A60016896
:101A10008A68037E42EA43028A6090F82010002917
:101A200001684A680FD042F400624A6001684A685F
:101A300022F460424A6001684A68194C436A04EB28
:101A400043331A4301E022F400624A600168CA6A23
:101A500022F47002CA620168CA6A838B114C04EBDB
:101A600003531A43CA6201688A6822F400728A60CA
:101A700001688A6890F8303042EA43228A6001683F
:101A80008A6822F480628A6001688A68406942EA52
:101A90008020886010BD0000002301400100000F7D
:101AA00000E0FFFF0000F0FFFEE700002DE9F0433B
:101AB000044684482DED048B87B0D0ED008A90ED6C
:101AC000018AA07998B14FF47A7500BF00F0F2FE58
:101AD0000146A068091AA9420CD258B194ED040A33
:101AE000D4ED030A07B0BDEC048BBDE8F0834FF4DE
:101AF000FA65EBE700F0DEFE401CA060142102A8AE
:101B0000FEF748FEA1880122206800F0CEFEA088E2
:101B1000029011200390E07904900220059002A920
:101B2000206800F0C5FDA1880022206800F0BDFEFD
:101B3000122000F0F9FCA1880122206800F0B5FE17
:101B4000142102A8FEF726FEA0880027CDE902078F
:101B5000E079049002A9206800F0AAFD72B6002581
:101B60009FED599A42F2107609E06D1CADB2B54274
:101B700005D962B684ED049A84ED039A18E0A18831
:101B8000206800F08DFE0128EFD0002503E06D1CD9
:101B9000ADB2B542EDD8A188206800F081FE0128E1
:101BA000F5D1002509E06D1CADB2B54205D962B68C
:101BB000B0EE680AF0EE480A94E7A188206800F0C9
:101BC0006FFE0128EFD000974FF000084FF6FF7925
:101BD000019707270026354601E06D1CADB2A188AC
:101BE000206800F05DFE012804D04D45F5D101E0EC
:101BF000761CB6B2A188206800F052FE012801D1FF
:101C00004E45F5D1AE4206D91DF808200121B94054
:101C10000A430DF808207F1EFFB2FF2FDAD108F12A
:101C2000010000F0FF08B8F1050FD2D362B69DF8AD
:101C300000109DF801009DF803300A189DF802007D
:101C400003441A449DF80430D2B29A4231D1A279A9
:101C5000012A01D02AB32CE0BDF80010DFED1B0AE9
:101C600049BA00EE101A0106B8EE400A60EE208A6A
:101C700007D4BDF8020040BA00EE100AB8EE400AE0
:101C80000CE020F080008DF80200BDF80200DFEDCE
:101C9000100A40BA00EE100AB8EE400A20EE208A80
:101CA00007E000EE101AF8EE408A00EE100AB8EED7
:101CB000408AC4ED048AB0EE680AF0EE480AC4ED2A
:101CC000030A0FE7C8D00008000000C3CDCCCC3D0C
:101CD000CDCCCCBD014800F0B1BA0000000B002013
:101CE000014800F0ABBA0000600B00200168182327
:101CF000CAB2103AB2FBF3F2054B6FF30901032AA3
:101D00009B5CC36500D9091D8165084670470000CA
:101D1000D0D0000810B5014600208B698A6A4FF0C8
:101D2000C07453B1B3F5005F15D072B1012A0CD065
:101D3000022A0AD0032A09D104E01AB1012A06D0E6
:101D4000022A03D1C96AC90100D5012010BDC96AA0
:101D5000A142FAD010BD002AF7D0012AF2D0022AFF
:101D6000F3D0032AF3D010BD30B50468256825F4FC
:101D700080252560046863608368402B036803D076
:101D800099600068C26030BD9A600068C16030BD73
:101D9000704772B6FEE7000078B50024009490F812
:101DA0003C20012A19D0012280F83C200A68072330
:101DB0000568092A13D9EE680A3A02EB42029340F9
:101DC0009E43EE600B788A680A3B03EB43039A401C
:101DD0000368DD682A43DA6010E0022078BD2E69CE
:101DE00002EB420293409E432E610B788A6803EB1C
:101DF00043039A4003681D692A431A614A681F23F6
:101E0000072A13D205686E6B521E02EB82029340C2
:101E10009E436E630B790A885B1E92B203EB8303C9
:101E20009A4003685D6B2A435A6327E005680D2AD0
:101E300012D22E6BD21F02EB820293409E432E637E
:101E40000B790A88DB1F92B203EB83039A40036885
:101E50001D6B2A431A6311E0EE6A0D3A02EB82020F
:101E600093409E43EE620B790A880D3B92B203EBDE
:101E700083039A400368DD6A2A43DA62164B0568D9
:101E8000144A9D4206D10D68122D03D1556845F4C0
:101E90008005556005689D4218D10B68102B01D054
:101EA000112B13D1536843F40003536009681029C0
:101EB0000CD10A490A4A0968B1FBF2F101EB810130
:101EC000490000E0491E00910029FBD180F83C4008
:101ED000002078BD002301400020014000040020C4
:101EE00040420F000068C06C704770B504004FF0AE
:101EF000000503D0206C002610B107E0012070BD62
:101F0000204600F01DF8666484F83C60206CC00632
:101F100010D4206C20F4885040F002002064204649
:101F2000FFF72CFD6664206C20F0020040F00100F9
:101F3000206400E0012584F83C60284670BD000064
:101F400010B586B0044614216846FEF723FC1149FB
:101F5000206888421CD110480021026842F4807237
:101F60000260006800F4807005900B481438026825
:101F700042F001020260006800F0010005900220BA
:101F800000900320CDE901016946044800F090FB70
:101F900006B010BD0020014044380240000002405D
:101FA0002DE9F041044600680D4681684FF00007B6
:101FB00049050BD58068C00508D5206C40F020008D
:101FC000206484F83C700120BDE8F08100F072FCD0
:101FD000064613E0681C11D025B100F06BFC801B95
:101FE000A8420BD920680068800707D4206C40F015
:101FF0000400206484F83C700320E5E72068006852
:102000008007E7D521686FF012000860206C40F46B
:10201000007020642068816811F0405F13D1217E38
:1020200089B9C16A11F4700F02D0806840050AD4E2
:10203000206C20F480702064206CC00403D4206CD9
:1020400040F0010020640020BEE7000018B5002128
:10205000009190F83C20012A07D0012280F83C2012
:1020600002689368DB0702D013E0022018BD936872
:1020700043F0010393602F4A2F4B1268B2FBF3F237
:1020800002EB420202E000BFA2F101020092002A2C
:10209000FAD102689368DB0742D0036C40F2016416
:1020A000A34343F48073036453685B0505D5036C55
:1020B00023F4005343F480530364036CDB0404D51E
:1020C000436C23F00603436400E0416480F83C1055
:1020D0001A496FF02203136049680068CA0618495C
:1020E00006D0884224D1816811F0405F13D01FE0F0
:1020F0008842F8D0134A904203D1D1F80423D20683
:10210000F1D0114A904213D1D1F8041301F01F010C
:102110001029E8D30CE0816841F08041816007E03C
:10212000016C41F010010164416C41F00101416416
:10213000002018BD0004002040420F000023014091
:1021400000200140002101400022014090F83C1095
:1021500001290CD0012180F83C1001688A6822F026
:1021600001028A6001688968C90702D007E002207D
:102170007047016C21F4885141F001010164002194
:1021800080F83C10084670472DE9F0410446876D01
:1021900000F090FB064694F835000025022806D092
:1021A0008020606584F834500120BDE8F08120680B
:1021B000016821F0160101602068416921F0800169
:1021C0004161206C08B9A06C20B12068016821F041
:1021D000080101602068016821F0010101600BE045
:1021E00000F068FB801B052806D9202034342062CB
:1021F000032060702570D8E720680068C007EFD121
:1022000034343F2094F828108840B8600120607072
:1022100025700020C9E790F83510022903D08021ED
:10222000416501207047052180F83510006801687C
:1022300021F0010101600020704700002DE9F84302
:1022400004464FF00009CDF8009065484FF4165150
:10225000A56D0068B0FBF1F72E6894F85C100820BB
:1022600000FA01F1314210D021680A6852070CD5FA
:102270000A6822F004020A6094F85C1000FA01F087
:10228000A860606D40F00100606594F85C104FF04C
:10229000010808FA01F0304208D0216849690906AE
:1022A00004D5A860606D40F00200606594F85C1091
:1022B000042000FA01F0304208D02168096889073B
:1022C00004D5A860606D40F00400606594F85C106F
:1022D000102000FA01F0304218D02168096809077F
:1022E00014D5A86020680168490304D5006800037C
:1022F00008D5A16C07E00168C90503D4016821F085
:1023000008010160216C09B12046884794F85C10EF
:10231000202000FA01F0304231D021680968C90656
:102320002DD5A86094F8350005282068016806D0EE
:10233000490347D5006800031DD4616C1CE021F0FF
:10234000160101602068416921F080014161206C23
:1023500008B9A06C20B12068016821F00801016073
:1023600094F85C103F208840A86084F8358084F899
:102370003490216D1FE0E16B09B120468847606D04
:1023800000282BD0606DC00714D0052084F83500DC
:102390002068016821F0010101600098401C009054
:1023A000B84203D820680068C007F6D184F83580A9
:1023B00084F83490E16C002910D001B02046BDE8CB
:1023C000F04308470168C905D5D4016821F0100120
:1023D000016084F8358084F83490CCE7BDE8F88358
:1023E000000400202DE9F041044600F063FA06469F
:1023F0005CB1022084F83500002584F83450206850
:10240000016821F0010101600DE00120BDE8F081CB
:1024100000F050FA801B052805D9202060650320B4
:1024200084F83500F2E720680068C007F0D1226820
:10243000116820480140D4E901031843D4E9033668
:102440003343184363691843A3691843E369184386
:10245000236A18430843616A042903D1D4E90B13A2
:1024600019430843106020684069666A20F007013C
:1024700030460E43012704280CD1A06A0643E06AC7
:1024800040B12046FFF746FC20B14020606584F84B
:102490003570BAE7206846612046FFF727FC94F8BC
:1024A0005C203F2191408160656584F83570002093
:1024B000ACE700003F8010F02DE9F0410446866D46
:1024C00090F83400002501280DD0012084F8340054
:1024D00094F835700020012F07D084F834000225CD
:1024E0002846BDE8F0810220FBE7022784F835701A
:1024F00060652046FFF738FC94F85C103F20884068
:10250000B0602068016841F016010160206C20B1C4
:102510002068016841F0080101602068016841F00D
:1025200001010160DCE7000070B5044600F0C2F96B
:102530000546601C02D004480078044400F0BAF953
:10254000401BA042FAD370BDF40300202DE9F04FE8
:102550000022DFF834B101264FF00F0906FA02F429
:1025600001EA0403A3427DD122F003075F44D7F8B8
:10257000008095074FEA157C09FA0CFA0AEA08056B
:10258000DFF80881404502D14FF0000832E0DFF863
:102590000081404502D14FF001082BE0DFF8F480C4
:1025A000404502D14FF0020824E0DFF8EC804045BE
:1025B00002D14FF003081DE0DFF8E080404502D172
:1025C0004FF0040816E0DFF8D880404502D14FF004
:1025D00005080FE0DFF8CC80404502D14FF0060837
:1025E00008E0DFF8C480404502D14FF0070801E061
:1025F0004FF0080808FA0CF8A84520D12B4DD5F863
:1026000000C02CEA030CC5F800C02D1DD5F800C091
:102610002CEA030CC5F800C0244D0C35D5F800C0D9
:102620002CEA030CC5F800C02D1FD5F800C02CEA19
:10263000030CC5F800C03D6825EA0A053D60056841
:1026400057000323BB409D430560D50800EB85057B
:10265000D5F820C057074FEAD76809FA08F72CEADF
:10266000070C00E00AE0C5F820C0C5689D43C560BE
:102670004568A543456084689C438460521C102AC9
:10268000FFF46CAFBDE8F08F083801400000024055
:102690000004024000080240000C0240001002400A
:1026A0000014024000180240001C0240003C01409F
:1026B0002DE9F84FDFF8BCA10022012503264FF0D9
:1026C0000F090AF1040BAAF1040E00BF0B6805FA0A
:1026D00002F42340A34270D10F7907F00307012FC2
:1026E00001D0022F16D187684FEA420806FA08FC8B
:1026F00027EA0C07D1F80CC00CFA08FC4CEA070CCE
:10270000C0F808C04768A7430C79C4F3001494408C
:102710003C4344600C79E443A4070AD0C4684FEA00
:10272000420C06FA0CF7BC438F6807FA0CF72743F4
:10273000C7600C7904F00304022C10D1D40800EB1C
:102740008407B8463F6A54074FEAD46C09FA0CF480
:10275000A7430C6904FA0CF43C43C8F82040046811
:10276000570006FA07FC24EA0C0491F804C00CF0A8
:10277000030C0CFA07FC4CEA040CC0F800C04C68CF
:1027800014F4403F6FD03C4C276847F480472760E3
:10279000246822F0030704F480440094374C3C443E
:1027A000A046276894074FEA147C09FA0CF4A74363
:1027B000334CA04202D1002424E054E0314CA0422A
:1027C00001D101241EE0304CA04201D1022419E0C5
:1027D0002E4CA04201D1032414E02D4CA04201D183
:1027E00004240FE02B4CA04201D105240AE02A4C1E
:1027F000A04201D1062405E0284CA04201D10724C3
:1028000000E0082404FA0CF43C43C8F80040DAF86D
:1028100000405746D1F804C09C435FEACC2C00D559
:102820001C433C60DBF800405F46D1F804C09C4389
:102830005FEA8C2C00D51C433C60DEF800407746F4
:10284000D1F804C09C435FEA8C3C00D51C433C603B
:10285000084F083F3C68D1F804C09C435FEACC3C79
:1028600000D51C433C60521C102AFFF42FAFBDE87A
:10287000F88F0000083C014044380240083801400D
:10288000000002400004024000080240000C024028
:10289000001002400014024000180240001C0240D8
:1028A0000069084000D0012070470AB1816170477B
:1028B0000904FBE70148806870470000F40300202A
:1028C00010B5040012D0242084F83D00206801686F
:1028D00021F001010160204600F0FCFA00203034B4
:1028E000206160732060A073207310BD012010BDB3
:1028F00070B5040025D094F83D00002520B984F877
:102900003C50204600F02AFB242084F83D0020683B
:10291000016821F0010101602068016841F4004173
:1029200001602068016821F40041016000F024FD8D
:102930004A4A6168914201D8494900E049498842C0
:1029400001D2012070BD48492368B0FBF1F15E68F7
:1029500026F03F060E435E606368934206D94FF44B
:10296000967359434FF47A73B1FBF3F12368491C12
:102970001E6A26F03F0631431962616891420AD807
:102980004900401EB0FBF1F0401CC0F30B000428CE
:102990001ED204201CE0A368F3B301EBC10202EBDA
:1029A0000116421EB2FBF6F2521C42F4804212059E
:1029B00049D093B301EBC10202EB0111401EB0FB01
:1029C000F1F0401CC0F30B0040F4804040F40040A4
:1029D0002168CA694CF6FF739A431043C861D4E971
:1029E000071001432068026822F0C0021143016011
:1029F000D4E9030101432068826848F2FF339A4317
:102A000011438160D4E9050108432168CA6822F0B6
:102A1000FF021043C86001E00EE016E02068016884
:102A200041F0010101602564202084F83D00256308
:102A300084F83E50002070BD01EB4106421EB2FBFF
:102A4000F6F2521CB3E70120C2E701EB4101401E40
:102A5000B0FBF1F0401CC0F30B00B7E7A08601000B
:102A600080841E0000093D0040420F002DE9F84F10
:102A70001F4690468A460446DDF82890FFF71AFF65
:102A8000054694F83D0020287ED1192301224249B1
:102A90002046009502F008F800287AD194F83C000E
:102AA000012876D0012084F83C0020680168C9071D
:102AB00003D1016841F0010101602068016821F43F
:102AC00000610160212084F83D00102084F83E0060
:102AD00000262664C4F824806785608D20852F48F1
:102AE000E0622B464A465146204601F097FE90B9D7
:102AF00020684169806900903AE02A4649462046AC
:102B000002F083F850B1206C042804D120680168D9
:102B100041F4007101600120BDE8F88F606A21680E
:102B200000780861606A00F101006062618DA1F1C6
:102B300001016185218DA1F1010189B22185226800
:102B400053696FEA03035B070BD451B1007810613E
:102B5000606A401C6062608D401E6085208D401E52
:102B600020852A464946204601F078FF0028CAD130
:102B7000208D0028C1D154F81F0B016841F4007169
:102B800001602020A07700E003E0E6776677002070
:102B9000C2E70220C0E70000020010000000FFFFB3
:102BA0002DE9FF4F83B09A46DDE91197934604461D
:102BB000DDF84080FFF77EFE054694F83D002028B2
:102BC00070D11923012272492046009501F06CFF53
:102BD0000028F5D194F83C00012863D0012084F846
:102BE0003C0020680168C90703D1016841F0010178
:102BF00001602068016821F400610160222084F8EE
:102C00003D00402084F83E0000262664C4F824805D
:102C1000A4F82A90608D20855E48E062CDE90075B9
:102C200053465A462046049901F046FE00287CD1BE
:102C3000208DD0B1012821D00228206824D04169FC
:102C400080690090208D032869D801282BD0524933
:102C500002283B464FF00002009559D08846204696
:102C600001F022FF002860D13CE0206841698169C1
:102C70000091016841F4007101607BE02068016807
:102C800021F480610160F0E7016821F48061016056
:102C90002068016841F40061016020684169806931
:102CA000009067E071E02A463946204601F07BFF3C
:102CB00098BB20680069616A087052E0206801686A
:102CC00041F40071016020680069616A0870606AFF
:102CD000401C6062218D491E2185618D491E6185E0
:102CE00021683CE02068016821F48061016020686F
:102CF0000069616A0870606A401C6062208D401E35
:102D00002085608D401E60853B460022414600952F
:102D1000204601F0C9FE00B9D0E706E0FFE72A46E9
:102D20003946204601F03FFF18B1012007B0BDE849
:102D3000F08F20680069616A0870606A00F1010024
:102D40006062218DA1F101012185618DA1F1010157
:102D5000618521684A696FEA020252070AD409694B
:102D60000170606A401C6062208D401E2085608D6D
:102D7000401E6085208D00287FF464AF20203C3405
:102D80006070A67026700020D0E70220CEE7000019
:102D9000020010000000FFFF040001002DE9FF4FBA
:102DA00083B09A46DDE9119793460446DDF84080EA
:102DB000FFF780FD054694F83D0020287ED11923B9
:102DC000012242492046009501F06EFE00287AD18A
:102DD00094F83C00012876D0012084F83C0020685B
:102DE0000168C90703D1016841F001010160206851
:102DF000016821F400610160212084F83D00402039
:102E000084F83E0000262664C4F82480A4F82A90A2
:102E1000608D20852E48E062CDE9007553465A4604
:102E20002046049901F0C6FD70B934E02A463946BF
:102E3000204601F0EAFE58B1206C042804D1206835
:102E4000016841F400710160012007B0BDE8F08F16
:102E5000606A216800780861606A00F101006062C0
:102E6000218DA1F1010189B22185628DA2F10102BA
:102E70006285226853696FEA03035B070BD469B16B
:102E800000781061606A401C6062208D401E2085C1
:102E9000608D401E6085208D0028C7D12A463946A6
:102EA000204601F0DBFD0028C6D154F81F0B016855
:102EB00041F4007101602020A07700E003E0E67794
:102EC00066770020C1E70220BFE700000200100083
:102ED0000000FFFF10B5194A0168194891420AD154
:102EE000016821F400110160164C40212046FFF7D3
:102EF0002DFB80210CE0144A91420BD1016821F492
:102F000080010160114C01212046FFF71FFB0221C7
:102F100020460DE00E4A91420ED1016821F40001D5
:102F2000016051150B48FFF711FB0B484FF48071FE
:102F3000BDE81040FFF70ABB10BD00000054004080
:102F40004038024000040240005800400014024093
:102F5000005C004000080240000002402DE9F04102
:102F600086B0044614216846FDF714FC2268394CEB
:102F7000374B0021374812260325042710349A4284
:102F800018D1026842F002020260006802AA00F052
:102F900002000590A2C2C020CDE9000669462E4875
:102FA000FFF786FB206840F400102060206800F4E2
:102FB000001019E0294B9A421AD1026842F020020F
:102FC0000260006802AA00F020000590CDE90056DA
:102FD000A2C269462248FFF76BFB206840F48000DC
:102FE0002060206800F48000059006B0BDE8F08104
:102FF0001C4B9A42F9D18846016841F004010160F6
:10300000016801F004010591016841F001010160CE
:103010000068694600F00100059050158DE84101F7
:10302000CDE903571048FFF743FB4FF480708DE85C
:103030004101CDE9035769460C48FFF739FB206889
:1030400040F400002060206800F40000CCE700009D
:103050000054004030380240000402400058004054
:1030600000140240005C00400008024000000240E2
:10307000024881680278114481607047F40300209F
:103080000B4810B5016841F400710160016841F41A
:1030900080610160016841F480710160032000F0EB
:1030A0009FF80F2000F006F800F050F8002010BD47
:1030B000003C024030B505461F4887B00024016837
:1030C00041F020010160006806A900F02000009096
:1030D00001A800F031F90498A8B100F04DF94000C2
:1030E0001649174AB0FBF1F11648491E026040F23A
:1030F000E732C0E90324C0E90114846100F0B8FBA1
:10310000040003D015E000F037F9E9E70D4800F0BE
:103110002FFC04000DD1372000F034F8102D07D219
:1031200000222946372000F03BF80748056000E000
:10313000012407B0204630BD4038024040420F0015
:1031400000140040C00B0020F80300200C4882B09F
:10315000016841F480410160006800F48040009003
:103160000748001F016841F080510160006800229B
:1031700000F0805000900F21901E02B000F010B8B7
:103180004438024000280ADB00F01F020121914070
:1031900040094FF0E02202EB8000C0F800117047B8
:1031A000F0B40E4B1B680C46C3F30223C3F10705B2
:1031B000042D00D90425191D072901D2002300E0A0
:1031C000DB1E012606FA05F1491E214099409E406A
:1031D000761E16403143F0BC05F038B90CED00E026
:1031E000064900F0070208684FF6FF03184040EA5E
:1031F0000220034A10430860704700000CED00E015
:103200000000FA052DE9F0470E46050065D0DFF80D
:103210001481D8F80000F7B200F00700B04207D2DE
:1032200088F80070D8F8000000F00700B04254D1D0
:1032300028683D4C810712D5400703D5206840F42B
:10324000E05020602878000703D5206840F46040F3
:1032500020602068A96820F0F000084320602878EA
:10326000C0072DD0304968680839012812D00228DB
:1032700013D0032811D00968890700292DDA2168A5
:1032800021F0030101432160FFF714FB814641F265
:10329000883A0EE009688903EFE709688901ECE7DD
:1032A000FFF708FBA0EB0901514502D90320BDE857
:1032B000F0872068696800F00C00B0EB810FEFD157
:1032C000D8F80010404601F00701B14207D9077055
:1032D000006800F00700B04201D00120E7E728783D
:1032E000400705D52068E96820F4E05008432060D5
:1032F0002878000706D52068296920F4604040EA54
:10330000C100206000F058F82168084AC1F3031199
:10331000515CC8400649086006480068FFF7CAFECD
:103320000020C4E7003C024008380240D8D0000822
:1033300000040020F80300200F2202600C4A1368EA
:1033400003F003034360136803F0F0038360136822
:1033500003F4E053C36012684FF4E05303EAD2026F
:1033600002610448006800F0070008607047000030
:1033700008380240003C02400448054900680968DA
:10338000044AC1F38221515CC84070470004002008
:1033900008380240E8D00008044805490068096878
:1033A000044AC1F34231515CC84070470004002018
:1033B00008380240E8D00008154810B5006810F041
:1033C0000C02144813D01449042A0FD0082A0ED135
:1033D0000F4C241F2268236802F03F025B0207D5CE
:1033E0002068C0F38810A0FB010106E0084610BD6C
:1033F0002168C1F38811A1FB00010023FCF7CAFF7B
:103400002168C1F30141491C4900B0FBF1F010BD36
:10341000083802400024F40040787D012DE9F84F7F
:1034200004006ED02078DFF84C93C007A9F10405A2
:103430004AD009F104000168C1F38101012908D0D3
:103440000068C0F3810002280AD1D9F800004002C8
:1034500006D52868800337D560680028E1D033E0BE
:103460006068B0F5803F10D0B0F5A02F286810D06C
:1034700020F480302860286820F48020286060686C
:10348000A8B1FFF717FA06460DE0286840F480302F
:10349000F4E740F480202860F7E700BFFFF70AFA5E
:1034A000801B642873D828688003F7D50CE0FFF7E9
:1034B00001FA064605E000BFFFF7FCF9801B64280F
:1034C000F0D828688003F7D42078DFF8AC82800732
:1034D0004FF0000A3ED5A748001D016811F00C0FFF
:1034E00008D00068C0F3810002280BD1D9F8000091
:1034F000400207D42868800716D5E068012800D16B
:1035000012E033E1E068B8B10120C8F80000FFF72D
:10351000D1F9064605E000BFFFF7CCF9801B022871
:10352000C0D828688007F7D52868216920F0F800FE
:1035300040EAC10028600DE0C8F800A0FFF7BAF922
:10354000064604E0FFF7B6F9801B0228AAD82868CF
:103550008007F7D42078000722D5864F8748616915
:10356000703771B101210160FFF7A4F9064604E04C
:10357000FFF7A0F9801B022809D838688007F7D523
:103580000EE0C0F800A0FFF795F9064605E083E0DD
:10359000FFF790F9801B02287ED838688007F7D49F
:1035A0002078400769D5DFF8CCB100270BF13C0B40
:1035B000DBF80000C0000BD4DBF8001041F08051B4
:1035C000CBF80010DBF80000012700F080500090DD
:1035D0006B4E3068C00510D4306840F480703060A5
:1035E000FFF768F9009005E0FFF764F90099401AC9
:1035F000022851D83068C005F6D55E4EA0686C36FA
:1036000001280FD00528306810D020F0010030606C
:10361000306820F004003060A068B8B1FFF74AF9C4
:1036200000900FE0306840F00100F4E740F0040043
:103630003060F7E7FFF73EF90099411A41F2883010
:10364000814266D830688007F4D50EE0FFF732F982
:10365000009007E0FFF72EF90099411A41F28830F7
:10366000814256D830688007F4D4012F05D1DBF8A9
:10367000001021F08051CBF80010A069C0B33D4983
:10368000091D0968C1F38101022949D00228504669
:1036900007D0C8F8600000E03BE0FFF70BF90446F4
:1036A0003AE04746C8F86000FFF704F9064604E030
:1036B000FFF700F9801B02282BD828688001F7D477
:1036C000D4E907010843A16A2E4A490802EB0141E7
:1036D000626A41EA8211084394F82C1040EA0161C1
:1036E000C9F8001001203866FFF7E4F8044606E048
:1036F0003EE000BFFFF7DEF8001B022809D828686B
:103700008001F7D534E000BFFFF7D4F8001B022892
:1037100002D90320BDE8F88F28688001F4D427E09F
:103720000128F7D0D9F80000E26900F48001914245
:103730001CD1226A00F03F01914217D147F6C071B7
:10374000626A0140B1EB821F10D1A26A4FF0FF33D1
:1037500000F4403103EB5202B1EB024F06D194F872
:103760002C1000F07060B0EB016F01D00120D1E7A8
:103770000020CFE70438024000004742800E474255
:10378000007000400000FFFF7047704710B590F8D0
:103790003C20012A22D0012280F83C20CA688C6893
:1037A00022F4407222434C6822F4806222430C6867
:1037B00022F4006222430C6922F4805222434C69B5
:1037C00022F400522243C969002322F480420A43B2
:1037D00001684A6480F83C30002010BD022010BD12
:1037E00070B590F83C20012A31D0012480F83C408B
:1037F000022280F83D2003685A689D6822F0700616
:103800000A6832435A60134B02689A4214D0B2F1EC
:10381000804F11D0104B9A420ED0104B9A420BD0D1
:103820000F4B9A4208D00F4B9A4205D00E4B9A424A
:1038300002D00E4B9A4204D1496825F08003194307
:1038400091603C30447000210170084670BD022038
:1038500070BD00000000014000040040000800406E
:10386000000C0040000401400040014000180040EE
:1038700010B5040003D094F83D0010B107E001201A
:1038800010BD002084F83C00204600F015F802200E
:1038900084F83D00211D206804F07EFA01203D34AB
:1038A00060726070A070E07020716071A071E07152
:1038B00020722070002010BD10B586B0044614217F
:1038C0006846FCF767FF26482268002182420AD139
:1038D0002448016841F001010160006800F0010026
:1038E000059006B010BD1F48001FB2F1804F28D0D0
:1038F0001D4B9A42F5D1026842F002020260006854
:1039000000F00200059017481438026842F00102E6
:103910000260006800F00100059040200090022045
:10392000CDE90101CDE9031069461048FEF7C0FE5C
:10393000002205211D20FFF733FC1D20FFF722FC8C
:10394000CFE7016841F0010101600068002200F04A
:103950000100059005211C20FFF722FC1C20EDE74B
:1039600000000140443802400004004000000240D2
:1039700090F83D10012901D001207047022180F804
:103980003D100168CA6842F00102CA60006811492E
:10399000884214D0B0F1804F11D00F4988420ED028
:1039A0000E4988420BD00E49884208D00D49884202
:1039B00005D00D49884202D00C49884204D1816863
:1039C00001F00701062903D0016841F001010160FF
:1039D0000020704700000140000400400008004043
:1039E000000C00400004014000400140001800406D
:1039F00070B5044690F83C000025012817D0012638
:103A000084F83C60022084F83D002068826822F03F
:103A1000770222F47F4282600868502837D00DDC9C
:103A200020284ED005DC88B3102811D149E00220AF
:103A300070BD302845D040280AD13AE060282ED009
:103A400070280CD0B0F5805F03D0B0F5005F11D0C6
:103A500001253C34667000202070284670BD4A68FD
:103A6000083120680AC904F008FA2068816841F02A
:103A7000770109E04A68083120680AC904F0FDF9B5
:103A80002068816841F480418160E2E719E0CA68FA
:103A90004968206804F0C6FA5021206806E0CA6828
:103AA0004968206804F010FB6021206804F0EFF9F9
:103AB000CFE7CA684968206804F0B4FA402120685A
:103AC000F4E7226801461046F0E7000070B50546AD
:103AD0000068214988423ED1287F01283BD11F4CF4
:103AE0004FF000012078002828460ED000F04EFB51
:103AF0002062296800224A62E1699FED190AF6EE08
:103B0000000A884210D9401A12E000F03FFBE06141
:103B1000012020702868016A21F00A0101622868EA
:103B2000016A41F0020115E04FF6FF73591A08448B
:103B300001EE100AB8EE411A21EE000A20EE200A2A
:103B400084ED090A22702868016A21F00A010162E5
:103B50002868016A016270BD000400400000002076
:103B6000287E0C3D2DE9F041054690F83C000026EA
:103B70000C46012810D0012085F83C0072B1042ABF
:103B80001CD0082A2CD00C2A50D00126002085F801
:103B90003C003046BDE8F0810220FBE7D4E900128A
:103BA000E368286804F050FA2868816921F00C0164
:103BB000816128688169A26811430FE0D4E900128D
:103BC000E368286804F092FA2868816921F440616A
:103BD000816128688169A26841EA02218161D5E793
:103BE0002868D4E9002C277B016A21F480710162E6
:103BF000C169036A21F0030141EA0C0121F0F00CD4
:103C000039074FF420674CEA116123F4206307EA77
:103C100002221A43C16102622868C16921F00C01C5
:103C2000C1612868C169A268114328E02868D4E905
:103C30000027E168036A23F480530362D0F81CC0B4
:103C4000036A2CF4407C4CEA07274FF6FF7C27F4EC
:103C500070470CEA013139434FF4204723F42043E5
:103C600007EA02321A43C16102622868C16921F47D
:103C70004061C1612868C169A26841EA0221C1614D
:103C800084E710B5040003D094F83D0010B107E0BC
:103C9000012010BD002084F83C00204600F015F8FB
:103CA000022084F83D00211D206804F075F80120F1
:103CB0003D3460726070A070E07020716071A0711E
:103CC000E07120722070002010BD704730B50446AE
:103CD000002551B104290DD0082910D094F84100D5
:103CE00094F84520012811D10EE094F83E0094F894
:103CF0004220F7E794F83F0094F84320F2E794F865
:103D0000400094F84420EDE7012A01D0012030BDA5
:103D1000022059B1042912D0082919D084F8410091
:103D200084F845000C2944D0012540E084F83E0089
:103D300084F842002068C26842F0020210E084F871
:103D40003F0084F843002068C26842F0040207E0A4
:103D500084F8400084F844002068C26842F00802F9
:103D6000C2600122206804F07BF814492068884270
:103D700014D0B0F1804F11D0114988420ED01149B2
:103D800088420BD01049884208D01049884205D09B
:103D90000F49884202D00F49884204D1816801F05E
:103DA0000701062903D0016841F00101016028469E
:103DB00030BD2068C26842F01002D1E70000014027
:103DC0000004004000080040000C004000040140D6
:103DD000004001400018004070B5044600680169C9
:103DE0004FF00005C943890715D4C168C943890745
:103DF00011D4E91E016101202077206880698007C5
:103E0000204602D0FFF762FE04E000F0C3F820462F
:103E100000F04CF9257720680169C943490717D498
:103E2000C168C943490713D46FF00401016102203E
:103E300020772068806910F4407F204602D0FFF789
:103E400045FE04E000F0A6F8204600F02FF92577A3
:103E500020680169C943090716D4C168C943090725
:103E600012D46FF008010161042020772068C06936
:103E70008007204602D0FFF729FE04E000F08AF810
:103E8000204600F013F9257720680169C943C90667
:103E900017D4C168C943C90613D46FF0100101617A
:103EA000082020772068C06910F4407F204602D0A7
:103EB000FFF70CFE04E000F06DF8204600F0F6F885
:103EC000257720680169C943C90708D1C168C9437A
:103ED000C90704D1891E0161204600F04DF9206810
:103EE0000169C943090609D4C168C943090605D453
:103EF0006FF0800101612046FFF746FC20680169F0
:103F0000C943490609D4C168C943490605D46FF0BD
:103F100040010161204600F04EF920680169C94363
:103F200089060BD4C168C943890607D46FF0200104
:103F300001612046BDE87040FFF727BC70BD00005E
:103F400010B586B0044614216846FCF723FC0E49E0
:103F50002068884216D10D480021026842F0100204
:103F60000260006800F0100005904FF420500090AF
:103F70000220CDE901010120CDE903106946044882
:103F8000FEF796FB06B010BD00000140303802403D
:103F900000100240704770B5044690F83C000026BF
:103FA0000D4601280FD0012084F83C006AB1042A94
:103FB0001DD0082A2FD00C2A3FD00126002084F8DB
:103FC0003C00304670BD022070BD206803F068FFE1
:103FD0002068816941F0080181612068816921F0D0
:103FE00004018161206881692A69114311E0206818
:103FF00003F086FF2068816941F4006181612068D7
:10400000816921F480618161206881692A6941EABE
:1040100002218161D2E7206803F0A8FF2068C1690E
:1040200041F00801C1612068C16921F00401C1614A
:104030002068C1692A69114311E0206803F0CAFFB2
:104040002068C16941F40061C1612068C16921F43F
:104050008061C1612068C1692A6941EA0221C161A8
:10406000ACE710B5040003D094F83D0010B107E0B0
:10407000012010BD002084F83C00204600F015F817
:10408000022084F83D00211D206803F085FE0120F8
:104090003D3460726070A070E07020716071A0713A
:1040A000E07120722070002010BD70477047000042
:1040B00010B50446022249B104290ED0082913D0B4
:1040C00094F84100012816D0012010BD94F83E005C
:1040D0000128F9D184F83E200FE094F83F00012830
:1040E000F2D184F83F2008E094F840000128EBD199
:1040F00084F8402001E084F841200122206803F088
:10410000AFFE16492068164A884201D0904203D17A
:10411000436C43F4004343642068884213D0B0F1F9
:10412000804F10D00F4988420DD00F4988420AD0E5
:104130000E49884207D0904205D00D49884202D0EE
:104140000C49884204D1816801F00701062903D097
:10415000016841F001010160002010BD0000014034
:10416000000401400004004000080040000C004032
:10417000004001400018004000680349884201D116
:10418000FEF776BF70470000001400400246002092
:1041900041B1042909D008290AD00C2901D110689D
:1041A000006C70471068406B70471068806B7047F8
:1041B0001068C06B7047704770477047F8B501686A
:1041C00004460868CA684B6910F00F0F4FF00005ED
:1041D0005AD003F0010602F49077374365D0C10747
:1041E00005D0D10503D5216C41F0010121644107BF
:1041F00005D5D90703D0216C41F002012164810764
:1042000005D5D90703D0216C41F0040121640107D1
:1042100007D502F02001314303D0216C41F00801A1
:104220002164216C00293BD0800604D5900602D57C
:10423000204603F0FEFF20684069216CC0F3801027
:1042400001F00801014320462BD003F0BDFF206898
:104250004069400621D52068143050E8001F21F045
:10426000400140E80012002AF5D1A06BA8B16C49CA
:104270000165A06BFDF7CFFF002811D0A06B016D89
:1042800001B0BDE8F040084783060ED593060CD573
:104290002046BDE8F84003F0CCBF2046FFF78DFF75
:1042A000F8BDFFF78AFF2564F8BD266B2023012E99
:1042B00079D1C60677D5D60675D5086848680090C6
:1042C0004869400640D5A16B086840680004000CAE
:1042D000EAD0A28D8242E7D9E085C869B0F5807F37
:1042E0002DD020680C3050E8001F21F4807140E888
:1042F0000012002AF5D12068143050E8001F21F088
:10430000010140E80012002AF5D12068143050E87D
:10431000001F21F0400140E80012002AF5D184F886
:104320003E30256320680C3050E8001F21F010015A
:1043300040E80012002AF5D1A06BFDF725FFA08D03
:10434000E18D401A81B229E0A08DE18D401A81B241
:10435000E08D0028A8D00029A6D020680C3050E8B5
:10436000002F22F4907240E80026002EF5D120683C
:10437000143050E8002F22F0010240E80026002E01
:10438000F5D184F83E30256320680C3050E8002FCA
:1043900022F0100240E80023002BF5D12046FFF761
:1043A0000BFFF8BDFFE705062CD515062AD594F8B6
:1043B0003D002128F5D1A068B0F5805F01D12069CA
:1043C000B0B1206A411C2162216800784860E08C0D
:1043D000401E0004000CE084E3D12068C16821F095
:1043E0008001C1602068C16841F04001C160D8E728
:1043F000206A0088C0F308004860206A00F10200CB
:104400002062E4E74006CCD55006CAD5CA682046EB
:1044100022F04002CA6084F83D3000F04BF9C0E75A
:104420002381000870B5040004D094F83D000025F5
:1044300010B106E0012070BD84F83C50204600F029
:1044400023F8242084F83D002068C16821F400513D
:10445000C160204603F04EFF2068016921F49041BD
:1044600001612068416921F02A0141612068C16829
:1044700041F40051C1602564202084F83D0084F897
:104480003E00002070BD00002DE9F04186B00646D8
:1044900014216846FCF77EF93149306888425BD1C7
:1044A00030480024016841F010010160006800F00C
:1044B000100005902B481438016841F0010101609B
:1044C0000068694600F0010005904FF4C06000905C
:1044D0000220CDE901040320039007200490224824
:1044E000FEF7E6F8224D21484FF000672860C5E945
:1044F00001744FF48068C5E903486C614FF44030A3
:10450000AC61C5E9074028466C62FDF76BFF08B156
:10451000FDF73FFCB563AE63164D144805F1080185
:104520007830C5E900074020A1E811016C618002E4
:10453000AC61C5E9074028466C62FDF753FF08B13E
:10454000FDF727FC7563002205212520AE63FEF7E9
:1045500027FE2520FEF716FE06B0BDE8F08100001C
:104560000010014044380240000002404064024014
:10457000000B0020600B002090F83E30202B0ED165
:1045800059B152B190F83C30012B08D0012380F88A
:104590003C300023036303F01BBF0120704702205F
:1045A0007047000070B51D481C4C002501781C4860
:1045B000241F0D2916D0A2798154A079401CA07126
:1045C000A079E071E079642821D36079F8B91722E5
:1045D00004F1B401134800F027F86079401C6071C1
:1045E000A57014E0A2790A218154A079401CE071E1
:1045F000A571E079642807D30849A5701722B03166
:10460000084800F011F802E00120A0706571BDE8D3
:104610007040012201490348FFF7AEBF04000020AB
:10462000180500209807002070B5044690F83D005A
:10463000202837D199B392B394F83C00012831D0A7
:10464000012084F83C002162A284E28400252564D4
:10465000212084F83D00636B1348D863636B1348D3
:104660001864636B1248D864606B1346056526684E
:10467000606B361D3246FDF71FFF21686FF040006A
:10468000086084F83C502068143050E8001F41F066
:10469000800140E80012002AF5D1002070BDFFE73C
:1046A0000120FBE70220F9E77D810008BF810008B7
:1046B000338100087047704710B5084C01228021F3
:1046C0002046FEF7F2F80120FDF72EFF20460022DB
:1046D000BDE810408021FEF7E8B80000000002406D
:1046E000FEE72DE9F04385B08846DDE90C57064624
:1046F0001C46914614216846FCF74CF83068016866
:1047000021F0010101603046FEF7DAF81120019036
:1047100000200290694600944046FDF7C9FF6946B3
:1047200048460095FDF7C4FFA1B201224046FEF7BE
:10473000BCF8A9B201224846FEF7B7F8A1B23B4641
:104740000122404606F02AFEA9B23B460122484615
:1047500006F024FEA9B200224846FEF7A6F8A9B248
:104760003B460022484606F019FEA1B20022404610
:10477000FEF79BF8A1B23B460022404606F00EFE33
:10478000A1B201224046FEF790F8A1B23B460122B9
:10479000404606F003FEA9B201224846FEF785F81E
:1047A000A9B23B460122484606F0F8FD1220CDE9A9
:1047B000004069464046FDF77BFF69464846009544
:1047C000FDF776FF3068016841F400410160306810
:1047D000016821F4004101603068016841F0010185
:1047E00001603046FEF784F805B0BDE8F08301684B
:1047F0004A69D24352050FD46FF480624A610021A6
:1048000040F8301F202242738173026942F0040293
:10481000026101730120704700207047F8B504461B
:10482000C06A1E460D461746082807D0012805D045
:1048300010F5803F02D0206B122804D12068016857
:1048400041F480710160134600224FF001112046AF
:10485000009600F029F940B120680068C00502D533
:104860004FF4007020640320F8BD2069B0F5804F3C
:104870000ED00620216800EAD51040F0F000086153
:1048800033463A460B49204600F042F978B902E037
:1048900005F0FE0000E0E8B22168086105493346F2
:1048A0003A46891F204600F033F90028DCD0012069
:1048B000F8BD0000080001002DE9F84F044600682B
:1048C00089460B9D01689846174641F48061016056
:1048D0002068016841F48071016000954FF0011B70
:1048E0000022594620460A9B00F0DEF84FF4007A79
:1048F00040B120680068C00501D5C4F840A003207D
:10490000BDE8F88F216809F0FE0008612B462849B0
:1049100020460A9A00F0FCF8F0BB206841698069E3
:1049200000902A4620460A9900F06FF940B1206CA9
:1049300004283AD12068016841F40071016034E034
:10494000FEB2B8F1010F09D02168380A08612A4681
:1049500020460A9900F059F90028E8D1206806613C
:104960002A4620460A9900F050F90028DFD1206835
:10497000016841F48071016000950022594620468B
:104980000A9B00F091F80028B3D1216809F0FF00DC
:1049900040F00100086100E007E02B460449204692
:1049A0000A9A00F0B5F80028AAD00120A8E7000074
:1049B000020001002DE9F843044600680D46DDE9D8
:1049C000089701689846164641F4807101604B468D
:1049D00000224FF001112046009700F065F848B121
:1049E00020680068C00502D54FF4007020640320E1
:1049F000BDE8F883216805F0FE0008613B464A46A1
:104A00001549204600F084F888B92068416980691A
:104A100000903A464946204600F0F7F848B1206C2D
:104A2000042804D12068016841F40071016001206C
:104A3000DEE7F5B2B8F1010F09D02168300A08614C
:104A40003A464946204600F0E0F80028E7D12068C1
:104A500005610020CCE700000200010070B5164699
:104A60000D4604460DE02046FFF7C1FE08B10120C7
:104A700070BD681C05D0FDF71DFF801BA84207D83C
:104A800035B120684069C0434007ECD4002070BDB8
:104A9000002044F8300F20216173A073216941F098
:104AA000200121612073E2E72DE9F0471E46904680
:104AB0000D460446C1F30747DDF8209008E0701C5E
:104AC00006D0FDF7F7FEA0EB0900B0420FD876B193
:104AD0002068012F18D0806925EA00000004000C2E
:104AE00014D000214145EAD00020BDE8F087002025
:104AF00044F8300F20216173A073216941F0200137
:104B0000216120730120F0E74069E5E70121E9E731
:104B10002DE9F0479A4691460E46044600254FF08F
:104B20002008C1F3074725E020684069C0434005DD
:104B300014D42068016841F40071016021686FF4A9
:104B400080604861256384F83D8084F83E50206C85
:104B500040F00400206484F83C501FE019F101008B
:104B600008D0FDF7A7FEA0EB0A0149450CD8B9F122
:104B7000000F09D02068012F13D0806926EA0000B9
:104B80000004000C0BD0CFE744F8305F84F80D80B0
:104B9000A573206940F02000206125730120BDE845
:104BA000F0874069EAE72DE9F041002590460E467E
:104BB0000446202716E04069C043C0060BD454F8D1
:104BC000201B6FF01000486125616777A577206A88
:104BD0002062257717E0FDF76DFEA0EB0800B042DC
:104BE00008D83EB120684169C9434906E3D4002092
:104BF000BDE8F08144F8305F6773A573206940F029
:104C00002000206125730120F2E770B516460D469D
:104C100004460DE02046FFF7EAFD08B1012070BD13
:104C2000681C05D0FDF746FE801BA84207D835B1A9
:104C300020684069C0430006ECD4002070BD00200D
:104C400044F8300F20216173A073216941F02001E5
:104C500021612073E2E70000F1B504462DED060B5B
:104C60002DED108B84B0B0EE429AF0EE629A9FED7B
:104C7000778B9FED78FB9FED790B8DED020B90ED1F
:104C800002EB51EC110B53EC1E2B08F019F841EC20
:104C9000100B51EC190B53EC102B07F0ABFD94EDFE
:104CA000001B53EC112B07F099FA94ED0ACB41EC61
:104CB0001D0B53EC1C2B51EC190B07F09BFD0E4602
:104CC00046EC100B94ED06BB054653EC1B2B51EC48
:104CD000100B07F0F5FF94ED08AB53EC1A2B07F01F
:104CE000EFFF53EC182B07F079FA53EC192B07F070
:104CF00081FD94ED041B53EC112B07F06FFA46EC89
:104D0000105B41EC180B53EC1B2B51EC100B07F014
:104D1000FFFE46EC105B41EC1B0B53EC1A2B51ECE5
:104D2000100B07F0F5FE41EC1A0B53EC192B51EC6C
:104D30001F0B07F05FFD53EC1C2B07F04FFA41EC03
:104D4000100B51EC180B8DED000B9DED020B53EC8D
:104D5000102B07F043FA41EC190B51EC180B53ECF4
:104D6000192B07F0EFFA41EC1C0B53EC192B51EC0B
:104D70001A0B07F0E7FA9DED140B41EC190B53ECFD
:104D80001D2B51EC100B07F09BFF41EC1F0B51EC5E
:104D90001C0B53EC1F2B07F02DFD53EC1D2B07F0C4
:104DA0001DFA41EC1D0B53EC1F2B84ED00DB51EC85
:104DB000190B07F01FFD53EC1E2B07F00FFA41EC07
:104DC000100B53EC182B84ED020B51EC1C0B07F06D
:104DD00011FD53EC182B07F09BFE41EC100B53EC2C
:104DE0001B2B84ED040B51EC1C0B07F003FD53EC63
:104DF0001B2B07F08DFE41EC100B53EC182B84EDB0
:104E0000060B51EC190B07F0F5FC53EC1A2B07F0CD
:104E10007FFE41EC100B53EC1B2B84ED080B51EC87
:104E2000190B07F0E7FC9DED000B53EC102B07F07E
:104E30006FFE41EC100B84ED0A0B04B0B0EE4D0A8E
:104E4000F0EE6D0ABDEC108B07B0F0BD000000E085
:104E50004D62503F000000C07493683F000000E0C6
:104E600051B89E3F2DE9F0411446DDE90825DDE902
:104E700006681F46B2F1FF3F05D0012A89B24FF004
:104E8000000202D107E089B20122FDF70EFDB9B29E
:104E90002046002204E0FDF708FDB9B220460122B9
:104EA000FDF703FDB8F1000F09D0B8F1040F09D0E8
:104EB0003068B8F1080F08D00564BDE8F0813068AB
:104EC0004563FAE730688563F7E7C563F5E72DE9E1
:104ED000F04115462DED028BF0EE608ADDE90962A6
:104EE000DDF82C80089CB0EE408A1F46B2F1FF3FEF
:104EF0000FD0012A89B24FF0000216D0FDF7D5FC81
:104F0000B9B228460022FDF7D0FC404600F0B4FDBF
:104F10002FE089B20122FDF7C8FCB9B22846002271
:104F2000FDF7C3FCB1EE488A06E0FDF7BEFCB9B25E
:104F300028460122FDF7B9FCF0EE680AB0EE480AF7
:104F4000404600F0A7FDB0EEC00A40F2DC51BDEED5
:104F5000C00A10EE100A884209DD08460AE02168FE
:104F6000082E10D00864BDEC028BBDE8F08100284B
:104F700000DA002026B1042EF1D121688863F2E71F
:104F800021684863EFE7C863EDE770B51446069AF9
:104F90001D46B2F1FF3F04D0012A89B209D0002298
:104FA00008E089B20022FDF780FCA9B22046012268
:104FB00005E00122FDF779FCA9B220460022BDE8F8
:104FC0007040FDF772BC2DE9F04385B00446012620
:104FD00004A8CDE900068946002764258DF81070E5
:104FE000A1B23346752202954846FDF7D9FD9DF8DA
:104FF0001000682803D0012005B0BDE8F083B84652
:105000008DF80C7003AF0097CDE90165A1B20123C3
:105010006B224846FDF7C2FE07208DF80C00009772
:10502000CDE90165A1B2012319224846FDF7B6FE7C
:105030008DF80C800097CDE90165A1B201231C22F7
:105040004846FDF7ABFE8DF80C800097CDE9016571
:10505000A1B201231B224846FDF7A0FE0020CBE7AA
:105060002DE9F04714462DED0C8B88B00D469FEDD1
:10507000A19B9FEDA2DB9FEDA3BB9FEDA4AB64239F
:105080000E2203A98DE80E0081B201233B2228469F
:10509000FDF786FDBDF80C0040BA00B22080BDF8D7
:1050A0000E1049BA0FB26780BDF8101049BA09B2A4
:1050B000A1808946BDF8121049BA0FFA81FABDF8ED
:1050C000141049BA0EB22684BDF8161049BA09B2B6
:1050D00061848846BDF8181049BA0DB2A58407F05E
:1050E00022FB9FED8C8B53EC182B07F083FB41ECDC
:1050F000100B384684ED020B07F015FB53EC182B10
:1051000007F078FB41EC100B484684ED040B07F0E8
:105110000AFB9FED821B53EC112B07F013F941ECB6
:10512000100B84ED060B00EE10AAF8EEC00A9FEDFE
:105130007D1A80EE810ADFED7C0A304630EE200ACF
:1051400084ED100A07F0EFFA9FED788B53EC182BE3
:1051500007F0F8F841EC100B404684ED0A0B07F01D
:10516000E2FA53EC182B07F0EDF841EC100B28464F
:1051700084ED0C0B07F0D7FA53EC182B07F0E2F88C
:1051800041EC100B84ED0E0BFDF794FB694D296883
:10519000401A07F0DFFA9FED681B53EC112B07F064
:1051A000D1F841EC1C0BFDF785FB2860208810FB33
:1051B00000F1A08810FB001007F0B5FA41EC100BCD
:1051C00003F0C2FCB0EE408AF0EE608A53EC192B7B
:1051D00051EC180B07F00EFA13D0B4F9020007F0E7
:1051E000A2FA53EC182B07F0ADF841EC100B03F0CA
:1051F0003FF953EC1D2B51EC100B07F0FBFA41EC7F
:10520000190BB4F9040007F08EFA41EC180BB4F94D
:105210000000404207F087FA41EC100BB0EE481A4C
:10522000F0EE681A03F098FA53EC1D2B51EC100BBA
:1052300007F0E0FA41EC180B53EC1B2B07F09EFA39
:1052400008D294ED300B53EC1A2B51EC100B07F0F5
:10525000CFFB0FD353EC1A2B51EC180B07F0C8FB04
:105260000FD294ED300B53EC1B2B51EC100B07F0CD
:1052700085FA06D284ED1E8B84ED308B94ED300BD5
:105280000FE094ED0C1BB0EE4C2AF0EE6C2AB0EE61
:10529000480AF0EE680A04F17800FFF7DDFC84EDBF
:1052A000300B03F049FB53EC1A2B51EC100B07F0B9
:1052B0009FFB09D294ED0A0B51EC100B06F050FF46
:1052C00041EC100B84ED0A0B94ED0A1BB0EE4C2A56
:1052D000F0EE6C2AB0EE490AF0EE690A04F14800DB
:1052E000FFF7BAFC84ED2E0B08B0BDEC0C8BBDE8CB
:1052F000F08700000000000000000000F8C1631A01
:10530000DCA54C4000000000008056C000000000FA
:1053100000805640000000000000103F0000000028
:105320000029CC400000AA43B81E12420000000031
:1053300000606040F00300200000000000408F404B
:105340007FB50024144800940194029411490394F9
:10535000C0E9001484600461047680F820400F499D
:10536000C0E90A140125C561C46080F83040456178
:10537000FCF7BBFD08B172B6FEE70095CDE901541C
:1053800069460548FCF708FD002801D072B6FEE723
:105390007FBD0000002001407C0500200100000FBF
:1053A0002DE9F04F87B014216846FBF7F3F95A480E
:1053B0000024016841F020010160016801F0200132
:1053C0000591016841F080010160016801F08001F0
:1053D0000591016841F001010160016801F00101DE
:1053E0000591016841F040010160016801F0400150
:1053F0000591016841F010010160016801F01001A0
:105400000591016841F002010160016801F00201AB
:105410000591016841F004010160016801F0040197
:105420000591016841F0080101600068DFF8ECA017
:1054300000F008000590002280215046FDF735FA63
:10544000DFF8DCB04FF4C046002231465846FDF785
:105450002CFA4EF25607002239463248FDF725FA5B
:105460004CF28008002241462F48FDF71EFA4FF407
:105470004069002249462D48FDF717FA002207210E
:105480002B48FDF712FA802000900125CDE9015448
:10549000694650460394FDF70BF90096CDE9015497
:1054A000694658460394FDF703F90097CDE9015486
:1054B00069461C480394FDF7FBF8CDF80080CDE960
:1054C0000154694618480394FDF7F2F8CDF80090AE
:1054D000CDE90154694615480394FDF7E9F841F216
:1054E0003000CDE90004694610480294FDF7E0F869
:1054F000B011CDE9000469460E480294FDF7D8F8D2
:1055000007200090CDE90154694609480394FDF74E
:10551000CFF807B0BDE8F08F3038024000000240FD
:105520000014024000180240001002400004024033
:10553000000C02400008024010B596B000240F9401
:1055400010941194129413941C2168461494FBF740
:1055500021F9202107A8FBF71DF92C482A490160F1
:105560007F21C0E9011440F2DC51C0E90314446119
:105570008461FEF77DF908B172B6FEE74FF4805002
:105580000F900FA92148FEF733FA08B172B6FEE773
:105590001E48FEF766FD08B172B6FEE7139413A924
:1055A0001A481494FEF71CF908B172B6FEE76020A1
:1055B000CDE90004029403940494059404226946FE
:1055C00012480694FEF7E7FC08B172B6FEE708221F
:1055D00069460E48FEF7DFFC08B172B6FEE7079495
:1055E000089409944FF400500A94CDE90B4007A9A0
:1055F00006480E94FEF7CAF808B172B6FEE70348F3
:10560000FEF79EFC16B010BD00000140C006002051
:1056100010B586B0002416480094019402940394B7
:1056200004944FF08041059401602B21C0E90114DE
:105630004FF6A971C0E903148461FEF719F908B1A6
:1056400072B6FEE74FF48050009069460848FEF7B6
:10565000CFF908B172B6FEE7049404A90448059492
:10566000FEF7BEF8002801D072B6FEE706B010BD06
:105670000807002010B58AB000242248049405943D
:1056800006940794089409940094019402941C4988
:10569000039401604721C0E901144FF6FE71C0E98F
:1056A00003148461FEF7E4F808B172B6FEE74FF424
:1056B0008050049004A91348FEF79AF908B172B615
:1056C000FEE71048FEF7DDFA08B172B6FEE708946F
:1056D00008A90C480994FEF783F808B172B6FEE7F2
:1056E0000120CDE900400294002269460548039458
:1056F000FEF738FA002801D072B6FEE70AB010BDF6
:105700000004004050070020FEE7FEE708B505232F
:105710000092002200F043F808BD70B504460D4623
:1057200000F06DF930222946204600F0ADF8012244
:1057300029462046FFF7EAFF002070BD2DE9F04121
:10574000002507468846062606EB8500C4B20023DE
:1057500022464146384600F061F9601CC2B200237F
:105760004146384600F05AF9A01CC2B20023414617
:10577000384600F053F9E41CE2B2002341463846B3
:1057800000F04CF96D1CEDB2102DDDD3BDE8F081B9
:1057900008B507230092002200F001F808BD2DE9AA
:1057A000FF5F1F460E9E9346044606B10126012563
:1057B0000DF10C094FF00A08CDF80090CDE9015821
:1057C0001FFA81FA20462B465A465146FDF7E8F962
:1057D000C0B905FA07F040F080019DF80C00CDF843
:1057E0000090884306F00101B94001438DF80C1088
:1057F000CDE90158204601235A465146FDF7CEFA1D
:10580000002800D0012004B0BDE8F09FF8B54FF4A7
:1058100080556C1E069FAB4200D32346002677B10D
:1058200033B1A34210D0A3F6FF735B429BB209E0F1
:105830002B46009600E0002300F008F8F8BDA342D4
:10584000F6D00BB10093F6E70095F4E77FB5062597
:10585000089C8DF80C301B0A8DF80D308DF80E4029
:10586000230A05EB82028DF80F300A25042403ABCE
:105870008DE83800D2B289B20123FDF78FFA0028F3
:1058800000D0012004B070BD7FB5044640F2F65050
:105890000D46824201D303202EE0182A01D8FF20B2
:1058A0002AE0104606F056FF9FED231B53EC112B08
:1058B00006F0A0FF41EC100B53EC102B9FED200BDA
:1058C00051EC100B06F03EFD9FED1F1B53EC112B0E
:1058D00007F0F6F906F050FC07F0DCFA9FED1C1B10
:1058E00053EC112B06F07AFC41EC100B03F030F86E
:1058F00051EC100B06F0EAFE8DF80C00012229464F
:10590000204600F075F80A22012103A88DE807005F
:10591000A9B220460123FE22FDF740FA00222946C3
:10592000204600F065F8012229462046FFF730FFA7
:1059300004B0002070BD0000000000000000B04076
:105940000000000084D77741000000000000F03F15
:10595000000000000000E03FF8B5B5EEC00A0024EA
:105960000F46F1EE10FA19491546064602D29FED90
:10597000180A05E010EE100A884201DD9FED150AB5
:1059800010EE100A07F086FA9FED131B53EC112B53
:1059900006F030FF9FED121B53EC112B06F0D2FCEA
:1059A0009FED111B53EC112B06F018FC06F0E4FBE5
:1059B00000EE100A2A463946BCEEC00A009410EEEA
:1059C000100A83B23046FFF721FFF8BD00003443D0
:1059D000000000000000344300000000008076401A
:1059E00000000000008066400000000000005940F8
:1059F00008B5042300920022FFF7D1FE08BD1CB5B4
:105A000006218DF804100A210091012301AA00212A
:105A1000FDF72CF8002800D001201CBD1CB589B270
:105A20008DF804204FF0FF328DF8053000920223EC
:105A300001AAFDF71BF81CBDC0ED0A1A80EC030A91
:105A40009FED0C0A80ED030A80ED040A80ED050A43
:105A500080ED060A80ED070A80ED080A80ED090A4C
:105A6000B0EE000A22EE000A80ED0B0A80ED0C2A4F
:105A700070470000000000009FED050A80ED050A58
:105A800080ED040A80ED030A80ED070A70470000EC
:105A90000000000000F1200181EC020A30EE600AF3
:105AA00080ED030AD0ED050AD0ED0A1A40EE210A76
:105AB000C0ED050A90ED0B1AF4EEC10AF1EE10FAF2
:105AC00006DCB1EE411AF4EEC10AF1EE10FA01D291
:105AD00080ED051AD0ED040A70EE600A80EEA11A7E
